:100000000C9486010C94B7010C94B7010C94B701C1
:100010000C94B7010C94B7010C94B7010C94B70180
:100020000C94B7010C94B7010C94B7010C94B70170
:100030000C94B7010C94B7010C94B7010C94B70160
:100040000C94B7010C94B7010C94B7010C94B70150
:100050000C94B7010C94B7010C94B7010C94BC1E1E
:100060000C94B7010C94301F0C94061F0C94B7012C
:100070000C94B7010C94B7010C94B7010C94B70120
:100080000C94B7010C94B7010C94B7010C94B70110
:100090000C94B7010C94B7010C94B7010C94B70100
:1000A0000C94B7010C94B7010C94B7010C94B701F0
:1000B0000C94B7010C94B7010C94B7010C94B701E0
:1000C0000C94B7010C94B7010C94B7010C94B701D0
:1000D0000C94B7010C94B7010C94B7010C94B701C0
:1000E0000C94B7010C94890B0C9404020C94350207
:1000F0000C94E90C0C9431020C9428030C94BA066D
:100100000C94E9090C941E270C944A030C941502D4
:100110000C9461100C94A41A0C94F2090C941F080E
:100120000C94CF030C943F020C94450C0C942B07B9
:100130000C944F100C94E9010C94AB060C943C0306
:100140000C9408020C94B21A0C94E4020C94931AC6
:100150000C9486100C94551B0C94121B0C940C02DE
:100160000C946A1A0C94C40C0C940F020C940002A8
:100170000C94EC020C94FD060C94E41A0C94EE1A08
:100180000C94511B0C94B5190C942D020C94230261
:100190000C94B11F0C9482030C94B80A0C94420C7A
:1001A0000C94F30E0C943B020C94631A0C94EE091D
:1001B0000C9432190C9426080C944B190C94D11BF6
:1001C0000C9419030C9427020C9419020C943C0A09
:1001D0000C9415070C94631B0C94871A0C94EE0175
:1001E0000C94E0060C941F0200002000230026005F
:1001F00029002C002F00320000010000030106013D
:10020000090100002100240027002A002D003000F1
:10021000330001010000040107010A01000022006F
:10022000250028002B002E003100340002010000C0
:10023000050108010B010505050507050808080863
:10024000020202020A0A080804040404010101016E
:100250000101010103030303030303030407070769
:100260000C0C0C0C0C0C0C0C02020202060606060E
:10027000060606060B0B0B0B0B0B0B0B01021020DB
:1002800020080810204010204080020102010804CC
:100290000201010204081020408080402010080460
:1002A00002018004020180402010080402010804B9
:1002B00002010102040810204080010204081020FD
:1002C000408000000A0B02090C0D0E080703040110
:1002D000000000000000000000000000000000001E
:1002E00000000000000000000000000000001211EB
:1002F00010000000000000000000000000000000EE
:100300000000000000000000B11F1E2711241FBEC6
:10031000CFEFD1E2DEBFCDBF00E00CBF14E0A0E024
:10032000B2E0E6E1F8E500E00BBF02C007900D92F5
:10033000A438B107D9F729E0A4E8B4E001C01D92C0
:10034000AE34B207E1F711E0C5E8D1E000E006C045
:1003500021970109802FFE010E94CB29C438D107C3
:1003600080E00807A9F70E94C7200C94F92B0C9491
:100370000000282F30E0F901EE53FD4F9491F90170
:10038000E458FD4F44912A5C3D4FF901249122230A
:1003900009F435C0992311F191509231F8F4E92F05
:1003A000F0E08827E952FE4F8F4F0C94CB290802CA
:1003B0000C02E90100020402EE010F02150219020B
:1003C0001F02230227022D023102EE0135023B02F9
:1003D0003F02809180008F7780938000E22FF0E0D1
:1003E000EE0FFF1FE45EFD4FA591B4918FB7F89417
:1003F000EC91611148C040954E234C938FBF0895F6
:10040000809180008F7DE8CF80918000877FE4CF4E
:1004100084B58F7784BDE2CF84B58F7DFBCF80918B
:10042000B0008F778093B000D9CF8091B0008F7DDE
:10043000F9CF809190008F7780939000CFCF8091FB
:1004400090008F7DF9CF80919000877FF5CF8091CC
:10045000A0008F778093A000C1CF8091A0008F7DF6
:10046000F9CF8091A000877FF5CF809120018F7711
:1004700080932001B3CF809120018F7DF9CF8091AF
:100480002001877FF5CF4E2BB8CFCF93DF9390E03D
:10049000FC01E458FD4F24918A5C9D4FFC0184913E
:1004A0008823C9F090E0880F991FFC01EE5FFD4F93
:1004B000A591B491FC01E45EFD4FC591D491611109
:1004C0000DC09FB7F8948C91209582238C938881DE
:1004D000282328839FBFDF91CF910895623051F484
:1004E0009FB7F8943C91822F809583238C93E88169
:1004F0002E2BEFCF8FB7F894EC912E2B2C938FBF30
:10050000EACF3FB7F8948091780790917907A0914E
:100510007A07B0917B0726B5A89B05C02F3F19F03D
:100520000196A11DB11D3FBFBA2FA92F982F882773
:10053000BC01CD01620F711D811D911D42E0660F4E
:10054000771F881F991F4A95D1F708958F929F9220
:10055000AF92BF92CF92DF92EF92FF924B015C017C
:100560000E9481026B017C010E9481026C197D094D
:100570008E099F09683E734081059105A8F321E02B
:10058000821A9108A108B10888EEC80E83E0D81E2F
:10059000E11CF11C81149104A104B10429F7FF901E
:1005A000EF90DF90CF90BF90AF909F908F90089585
:1005B0002FB7F89460917407709175078091760752
:1005C000909177072FBF08950895DC01ED91FC917C
:1005D0000190F081E02D1994AF92BF92CF92DF92FB
:1005E000EF92FF920F931F93CF93DF936C017B01E8
:1005F0008B01040F151FEB015E01AE18BF08C01779
:10060000D10759F06991D601ED91FC910190F081EB
:10061000E02DC6011995892B79F7C501DF91CF919E
:100620001F910F91FF90EF90DF90CF90BF90AF9010
:100630000895FC01538D448D252F30E0842F90E0E8
:10064000821B930B541710F0CF96089501970895CD
:10065000FC01918D828D981761F0A28DAE0FBF2F96
:10066000B11D5D968C91928D9F5F9F73928F90E0EC
:1006700008958FEF9FEF0895FC01918D828D98175B
:1006800031F0828DE80FF11D858D90E008958FEF98
:100690009FEF0895FC01918D228D892F90E0805C61
:1006A0009F4F821B91098F73992708958CE797E0DC
:1006B0000E944A0321E0892B09F420E0822F08954B
:1006C000FC01A48DA80FB92FB11DA35ABF4F2C91C7
:1006D000848D90E001968F739927848FA689B789BE
:1006E0002C93A089B1898C91837080648C93938DB5
:1006F000848D981306C00288F389E02D80818F7D58
:1007000080830895EF92FF920F931F93CF93DF930F
:10071000EC0181E0888F9B8D8C8D98131AC0E8893D
:10072000F989808185FF15C09FB7F894EE89FF890C
:100730006083E889F98980818370806480839FBFAA
:1007400081E090E0DF91CF911F910F91FF90EF90AA
:100750000895F62E0B8D10E00F5F1F4F0F731127BA
:10076000E02E8C8D8E110CC00FB607FCFACFE889F5
:10077000F989808185FFF5CFCE010E946003F1CF1A
:10078000EB8DEC0FFD2FF11DE35AFF4FF0829FB769
:10079000F8940B8FEA89FB8980818062CFCFCF9359
:1007A000DF93EC01888D8823B9F0AA89BB89E88999
:1007B000F9898C9185FD03C0808186FD0DC00FB63F
:1007C00007FCF7CF8C9185FFF2CF808185FFEDCFBD
:1007D000CE010E946003E9CFDF91CF91089580E0C0
:1007E00090E0892B29F00E94560381110E9400009D
:1007F00080E090E0892B49F080E090E0892B29F09F
:100800000E94000081110E94000080E090E0892B8E
:1008100049F080E090E0892B29F00E9400008111CE
:100820000E94000080E090E0892B49F080E090E099
:10083000892B29F00E94000081110C94000008957A
:100840008823E9F0A7EDB4E025E014969C91149775
:1008500089130DC095E0899FF0011124E952FB4FE7
:10086000848114968C9313821282148208959923A2
:1008700031F0929FD0011124A952BB4FE6CF0895C9
:1008800090E080E008958EBD00000DB407FEFDCF1E
:100890008EB508950F931F93CF93DF938C01EB01D7
:1008A00060E085E30E94B9018AE30E9443040C0FD3
:1008B0001D1F0C171D0729F080E00E944304899337
:1008C000F8CF61E085E3DF91CF911F910F910C94F8
:1008D000B9011F93CF93DF93D82F162FC42F60E059
:1008E00085E30E94B901812F8D2B0E9443048C2F38
:1008F0000E94430461E085E3DF91CF911F910C9446
:10090000B901CF93DF93D82FD076909100029D1735
:1009100099F0C82F43E06FE180EA0E9469044C2FF0
:1009200050E085E0559547958A95E1F76FE180E8BD
:100930000E946904D0930002DF91CF9108951F9324
:10094000CF93DF93C82F162FD72F0E948104412FFA
:100950006C2F80E40E94690461E06C0F4D2F80E4ED
:10096000DF91CF911F910C946904EF92FF920F9346
:100970001F93CF93DF938B017A018F3F59F095E05E
:10098000899FE0011124C952DB4F68817981600F92
:10099000711F0FC06091D2047091D304600F711F5A
:1009A000C2EDD4E0611588E0780778F37850C2EDA5
:1009B000D4E080E00E949F048A819B81801B910B80
:1009C000E816F90608F4C701DF91CF911F910F9146
:1009D000FF90EF9008956091D0047091D10461155B
:1009E000710529F0615071098CE00C949F046FEF40
:1009F00077E0FACFCF93DF93D82FC62F60E085E35F
:100A00000E94B9018C2F8F718D2B0E94430480E0CE
:100A10000E944304C82F61E085E30E94B9018C2F36
:100A2000DF91CF910895CF93C62FBC0182E00E9441
:100A30009F0460E085E30E94B9018AE70E944304B5
:100A40008C2F0E94430461E085E3CF910C94B9019F
:100A5000CF93BC0180E00E949F0460E085E30E9488
:100A6000B9018AE30E94430480E00E944304C82F36
:100A700061E085E30E94B9018C2FCF910895CF9258
:100A8000DF92EF92FF920F931F93CF93DF936C014E
:100A90008B014130510579F4CB010E942805682F64
:100AA000C601DF91CF911F910F91FF90EF90DF90E2
:100AB000CF900C941305EA01C60FD71F7E0181E089
:100AC000E81AF10880E10E949F04B60184E10E94C7
:100AD0009F040115184048F4E11488E0F80628F056
:100AE0007E0181E0E81A88E0F80AB70182E10E94FD
:100AF0009F0440E16FE180EA0E94690440E26FE1F7
:100B000080E80E9469046FE180E00E94FA0485FF9A
:100B100007C061E070E080E090E00E94A602F3CFA1
:100B2000DF91CF911F910F91FF90EF90DF90CF90C9
:100B30000895CF92DF92EF92FF920F931F93CF937E
:100B4000DF938C016091D7047091D8046150784E86
:100B5000C12C98E1D92EE7EDF4E020E0D0E0C0E030
:100B600045E03481CB01332341F0439FC001112480
:100B700089529B4FDC018D919C91E080F1808E1910
:100B80009F090280F381E02D8E1B9F0B8017910738
:100B900099F4B5E02B9FE0011124C952DB4FECED35
:100BA000F4E081E022813381232B09F453C0359690
:100BB0008F5F8533B9F744C00817190748F48C15BF
:100BC0009D0530F4249FE0011124C952DB4F6C01D4
:100BD000311121C0209719F7C7EDD4E085E0D82E58
:100BE0008C8128813981EA80FB808823D9F0E20E4C
:100BF000F31E8D9DE0011124C952DB4F688179817C
:100C0000E616F70669F34A815B81C7010E943F053A
:100C1000F982E882E5CF349FF0011124E952FB4FBD
:100C2000232F9FCF8091D7049091D804821B930BE0
:100C30008E199F098150984E8017910708F0AFCF09
:100C400080E0DF91CF911F910F91FF90EF90DF90A7
:100C5000CF900895288139814A815B81240F351F07
:100C600031832083138302839C8194838C83E9CF17
:100C70000F931F93DB01E42FA80190E0EF3FE1F019
:100C800065E0E69FF0011124E952FB4F608171811C
:100C9000620F731F01C0785025E0289FF001299F43
:100CA000F00D1124E952FB4F808191818A0F9B1F27
:100CB0001F910F910C943F056091D2047091D30461
:100CC000620F731F6115E8E07E0728F7E2EDF4E09C
:100CD000DDCFCF92DF92EF92FF920F931F93CF93CE
:100CE000DF936B018A01790195E0899FE00111246E
:100CF000C952DB4F688179816C0D7D1D82E00E94B5
:100D00009F040A80DB81C02DCC19DD09EC16FD069D
:100D100008F4E70160E085E30E94B9018AE70E94D8
:100D200043047801EC0EFD1EE016F10631F0F801E7
:100D300081918F010E944304F7CF61E085E30E9417
:100D4000B901CE01DF91CF911F910F91FF90EF90EC
:100D5000DF90CF900895DC011C96ED91FC913097C7
:100D600031F086819781982789279827089590E008
:100D700080E00895CF93DF93FC01EB01AC85BD8546
:100D80001097A9F012969C91129713968C91139735
:100D90003C9111962C9147E852E051834083328375
:100DA000238394838583CF01DF91CF91089587E8D2
:100DB00092E0918380831282138214821582F3CF92
:100DC000CF93DF931F92CDB7DEB7DC01ED91FC919D
:100DD000048CF58DE02D41E050E0BE016F5F7F4F48
:100DE00019951816190634F4898190E00F90DF9157
:100DF000CF9108958FEF9FEFF9CFCF93DF93EC0161
:100E00008A89882379F09A01AB016E857F850E94DB
:100E100069062E853F85280F391F3F872E87DF9172
:100E2000CF91089590E080E0FACFCF93DF931F92A7
:100E3000CDB7DEB76983DC01ED91FC910280F381CF
:100E4000E02D41E050E0BE016F5F7F4F19950F909C
:100E5000DF91CF91089580E00895FB014150510941
:100E6000460F571FE417F50778F4208130E0322F42
:100E700022276181260F311D820F931F821793074E
:100E800008F401963296EECFE417F50751F420816D
:100E900030E0322F2227820F931F8217930708F426
:100EA00001960895CF92DF92EF92FF920F931F93D6
:100EB000CF93DF93C82FE0900F07F12CFE2CEE2488
:100EC000409110074451550BE40EF51E48E050E0E8
:100ED00069E177E0C7018C0F911D0E942D0708E0A2
:100EE000C13129F000912D07069506950C7310E08D
:100EF000A80161E277E00E942D07EC010E151F05A5
:100F000008F049C0A701401B510B8091CE0462E25A
:100F100070E081FF02C063E270E0600F711F80919A
:100F2000CF040E94B50401977C0160E085E30E9434
:100F3000B9018AE30E944304D12CC12CCE14DF04F2
:100F4000B8F480E00E944304082F10E0102F00271F
:100F500080E00E944304800F912F911DC80FD91F7C
:100F6000C817D90708F4219682E0C80ED11CE6CF35
:100F7000EC14FD0461F480E00E94430490E0982F9B
:100F80008827C80FD91FC817D90708F4219661E030
:100F900085E30E94B9019C2F8D2FCD2B11F48FEF8B
:100FA0009FEFDF91CF911F910F91FF90EF90DF9016
:100FB000CF90089544E150E06DE077E090E080E06C
:100FC0000E942D07009721F09827892798270895D8
:100FD0008FEF9FEF0895CF93DF93C091CE04C1FFB1
:100FE00013C02091CC0430E04FEF56E061E070E098
:100FF0008091CF040E946906CD7FC093CE0480917A
:10100000CF040E94200407C0C0919E06D0919F0685
:10101000CE01089631F41092CF0480E0DF91CF9199
:1010200008950E9499058093CF048823B1F39E010F
:101030004FEF56E061E070E00E946906E0CFDC010E
:10104000ED91FC91048CF58DE02D199490E080E0F9
:101050000895CF92DF92EF92FF92CF93DF93DC015E
:101060001796CC911797D0E06111DC2F18962C9130
:10107000189730E0220F331F28513E4F50E040E0D8
:10108000F90185919491FC01F080BA0190E080E033
:10109000EF2DEC23ED1310C04F5F5F4F1D96CD90E9
:1010A000DD90ED90FC9050976C157D058E059F05A9
:1010B00038F36FEF7FEFCB01DF91CF91FF90EF908F
:1010C000DF90CF9008958F929F92AF92BF92CF9270
:1010D000DF92EF92FF920F931F93CF93DF93CDB7E1
:1010E000DEB7C054D1400FB6F894DEBF0FBECDBFFF
:1010F0008C010E94D802F801C184D284E384F48474
:101100009B01AC012C193D094E095F0969017A0167
:1011100030EDC31637E0D306E104F104A8F4818969
:10112000C05CDE4F0FB6F894DEBF0FBECDBFDF91BF
:10113000CF911F910F91FF90EF90DF90CF90BF90D4
:10114000AF909F908F90089561877287838794876F
:101150001482138212821182108262E085810E94C1
:10116000450261E070E080E090E00E94A60261E04C
:10117000F80185810E94450260E0F80185810E94A6
:10118000B901F80186818551823028F58BE291E121
:101190000197F1F762E0F80185810E944502F801AC
:1011A000828990E08230910538F0880F991F880F6E
:1011B000991F05970197F1F7F89460E0C8010E9424
:1011C00029086F3F7F4F8F4F9F4F61F4F801118ABD
:1011D000789480E0A5CF64E170E080E090E00E9428
:1011E000A602D8CF61E0C8010E9429086F3F7F4F57
:1011F0008F4F9F4F59F39E012F5F3F4F79015E0143
:101200003FEBA31A3EEFB30A670160E0C8010E94FA
:101210002908F601608371838283938361E0C801AA
:101220000E942908F6016483758386839783F8E01A
:10123000CF0ED11CCA14DB0441F7789430E020E0D3
:10124000F70180809180A280B380448155816681BE
:101250007781FFEF8F169F06AF06BF0631F04F3F35
:101260008FEF58076807780719F4F801118AB1CF92
:10127000F90183E0F595E7958A95E1F7E00FF11F15
:101280008081880F84169506A606B706F0F0808345
:101290002F5F3F4FF8E0EF0EF11C2832310581F649
:1012A000F801448120818181280F3327331F8281F7
:1012B000280F311D8381820F932F911D9927481785
:1012C000190699F681E0818B2BCF8160E0CF8F9258
:1012D0009F92AF92BF92CF92DF92EF92FF920F93C5
:1012E0001F93CF93DF93EC018A81863308F08653F6
:1012F00020917B00982F9870277F922B90937B00F2
:101300008770806480937C0080917A0080648093F1
:101310007A0080917A0086FDFCCF009178001091D0
:1013200079006B817C818D819E810E948B296B016C
:101330007C01012E000C220B330BA90198012C1902
:101340003D094E095F09A4E6B0E00E9470284B01F8
:101350005C016F81788589859A850E948B299B0124
:10136000AC012C193D094E095F09C501B4010E9469
:101370005128CA01B9010E9434276B017C0120E089
:1013800030E0A9010E942D2787FD11C020E030E048
:1013900048EC52E4C701B6010E94C129181654F462
:1013A000C12CD12C88ECE82E82E4F82E03C0C12C8D
:1013B000D12C7601C701B601DF91CF911F910F911A
:1013C000FF90EF90DF90CF90BF90AF909F908F9065
:1013D000089560E0FC0182810C94450260E070E0B9
:1013E000CB010895CF92DF92EF92FF92CF93DF93DC
:1013F000EC0102960E946308882341F088858B30B7
:1014000028F08D3040F08551823030F160E070E09E
:1014100080EC9FE71AC06B8170E090E080E00E9452
:1014200034272DEC3CEC4CEC5DE30E9493276B01E0
:101430007C016A8170E090E080E00E9434279B018B
:10144000AC01C701B6010E94AD28DF91CF91FF909A
:10145000EF90DF90CF9008956A817B817627672790
:10146000762790E080E00E9432272DEC3CEC4CEC9B
:101470005DE30E949327E9CFCF92DF92EF92FF9234
:101480001F93CF93DF93EC0102960E946308882399
:1014900039F088858C3009F44DC038F48B30E1F098
:1014A00060E070E080EC9FE73DC085518230C0F77E
:1014B0001C81612F70E0762F662766277F778D81EC
:1014C000682B90E080E00E9432272DEC3CEC4CEC45
:1014D0005DE30E94932748C06C8170E090E080E05B
:1014E0000E9432276B017C01CD81C7FF0AC0AC018D
:1014F0009B0160E070E080E89FEB0E94AC286B01EC
:101500007C01CF706C2F70E090E080E00E94342767
:101510002DEC3CEC4CEC5DE30E949327A701960177
:101520000E94AD28DF91CF911F91FF90EF90DF9047
:10153000CF9008951C81612F70E090E080E00E94C0
:1015400032276B017C016D816F7070E090E080E06C
:101550000E9434272DEC3CEC4CEC5DE30E94932779
:10156000A70196010E94AD2817FFDCCF9058DACF73
:10157000CF93DF93EC0162E08F810E9445020E94CD
:10158000D802605D7740810991096B877C878D87E0
:101590009E8787E38C8BDF91CF910895CF93DF9364
:1015A000EC0162307105C9F060F46130710591F0B1
:1015B0008881259660E00E94B9011882DF91CF9161
:1015C00008956330710561F06430710589F78C818D
:1015D0002996F0CF89812696EDCF8A812796EACF8A
:1015E0008B812896E7CFCF93DF93EC0160E08E816B
:1015F0000E94B90161E08E810E94B90160E08E8194
:101600000E94B9018BE891E00197F1F7DF91CF914A
:101610000895CF92DF92EF92FF920F931F93CF9393
:10162000DF936C017C0187E0E80EF11CD0E0C0E0A4
:10163000062F10E0B8010C2E02C0759567950A942C
:10164000E2F76170F70181917F010E94B901219653
:10165000C430D10579F7C601DF91CF911F910F9169
:10166000FF90EF90DF90CF900C94F30ACF92DF922F
:10167000EF92FF920F931F93CF93DF93EC01F62E1F
:10168000642F8C810E94B9018D818F3F19F060E039
:101690000E94B9010F2D10E08F8584FF25C06E01D7
:1016A00087E0C80ED11CF12CE12CB8010E2C02C031
:1016B000759567950A94E2F76170F60181916F0163
:1016C0000E94B901FFEFEF1AFF0A88E0E816F10463
:1016D00061F7CE01DF91CF911F910F91FF90EF90B5
:1016E000DF90CF900C94F30AB80184E0759567956C
:1016F0008A95E1F7CE010E94090B6F2DCE01DF9193
:10170000CF911F910F91FF90EF90DF90CF900C94AD
:10171000090B41E00E94360B81E090E0089540E023
:101720000C94360B443008F043E0FC012389421747
:1017300010F04FEF420FFC01E40FF11D2489620FFE
:1017400060680C948F0B61E00E948F0B8BE39FE12C
:101750000197F1F708950F931F93CF93DF93EC0157
:10176000623019F48F8588608F876B8B1C8A80E4C8
:101770008D8B80E18E8B80E58F8B61E08C810E9468
:1017800045028D818F3F19F061E00E94450261E0C2
:101790008E810E9445028E0198012C1B3D0B8F8586
:1017A00084FD0DC084E090E00F5F1F4F28173907BC
:1017B0004CF461E0F80186810E944502EDCF88E09B
:1017C00090E0F2CF8BE39DE00197F1F760E08C8130
:1017D0000E94B90160E08E810E94B9018D818F3F26
:1017E00019F060E00E94B9016F8564FD34C063E0C8
:1017F000CE010E94090B0BE416E4C8010197F1F732
:1018000063E0CE010E94090BC8010197F1F763E084
:10181000CE010E94090B83E592E00197F1F762E0A7
:10182000CE010E94090B6F856062CE010E948F0B72
:1018300084E0888B6CE0CE010E948F0BCE010E9469
:10184000A30B82E0898B66E0CE01DF91CF911F91DF
:101850000F910C948F0B6062CE010E948F0B8BE472
:1018600096E40197F1F76F856062CE010E948F0BBD
:1018700083E592E00197F1F76F856062CE010E94E7
:101880008F0BD1CF04960C94A30BCF93DF93EC0175
:1018900061E08A810E94450260E08A810E94B9016C
:1018A000249662E0CE010E94AB0BCE01DF91CF9176
:1018B0000C94A30B0F931F93CF93DF93DC01209124
:1018C000E0053091E1052F5F3F4F21158DE7380787
:1018D00010F020E030E1522F432FE3E6F6E0EF0175
:1018E00080E08430A1F43093E1052093E00530E0FE
:1018F00020E02430310599F484E08093E805F0E09D
:10190000E0E0CF01DF91CF911F910F9108950C81FD
:101910001D818F5F2B960417150719F7D4CFC4814B
:10192000D581C90101963B96CD2B09F52093E80599
:101930008BE0829FF001839FF00D1124ED59F94F48
:101940005583448377836683109799F484E0DF019D
:101950001D928A95E9F78BE0829FD001839FB00D9D
:101960001124AD59B94F80E418968C93CACF9C01CD
:10197000C0CF8D919C9111979183808312968D9108
:101980009C9193838283E7CF0F931F93CF93DF9331
:10199000EC018B018C859D85892B41F470E060E022
:1019A00090E080E00E945A0C9D878C87EC85FD8535
:1019B00080E0309749F01027012710271583048312
:1019C0002E96D287C18781E0DF91CF911F910F9131
:1019D0000895CF93DF93DC011C96ED91FC91309735
:1019E000B1F0EC0115821482128611861D861C86C8
:1019F00089890E94200488890E9420048A890E9483
:101A000020042E9686E0FE0111928A95E9F7DF9177
:101A1000CF910895CF92DF92EF92FF920F931F9391
:101A2000CF93DF936C01E0902C09F0902D0906E92B
:101A300018E0D0E0C0E0CE15DF050CF5F8012481F8
:101A40003581F6018481958128173907A1F4F801C1
:101A500080819181F60160817181009799F0611513
:101A6000710531F4232BD9F0FC01808190E015C081
:101A70000E94E92B12C02196015F1F4FDCCF90E03E
:101A800080E015C06115710551F0232B41F0FB0179
:101A9000808190E0919581959109892B61F72FE0E4
:101AA0002C9FC0012D9F900D11248A56974FDF91D6
:101AB000CF911F910F91FF90EF90DF90CF900895FD
:101AC0000E940A0D009711F0FC0116860895CF932D
:101AD000DF930E940A0DEC01892B41F081E08E8793
:101AE0000E94D8026A877B878C879D87DF91CF9180
:101AF0000895FC0180819181009711F00C946F2A68
:101B000008950F931F93CF93DF93EC018881998100
:101B1000009759F02A813B812617370730F081E082
:101B2000DF91CF911F910F9108958B016F5F7F4FD0
:101B30000E94F82A009759F0998388831B830A83AF
:101B40002C813D81232B59F7FC011082E8CF80E0E6
:101B5000E7CF8F929F92AF92BF92EF92FF920F9337
:101B60001F93CF93DF93CDB7DEB72F970FB6F894BF
:101B7000DEBF0FBECDBF4A015B011A8219821C82F3
:101B80001B821E821D82FC0100811181011511053D
:101B9000B9F0E480F580B701CE0101960E94810D75
:101BA00029813A81811166C02115310519F0C901D9
:101BB0000E946F2A1A8219821E821D821C821B8239
:101BC0008F829886A986BA861B861C861D861E86ED
:101BD0001F86E0902C09F0902D09C7010196909383
:101BE0002D0980932C098FE08E9D80018F9D100D13
:101BF00011240A56174FF80180819181009709F44A
:101C000042C069817A8161157105D9F142815381A0
:101C10002D813E8142175307A0F10E94F22B8D8146
:101C20009E81F801958384831E821D828FE08E9DA4
:101C3000D0018F9DB00D1124A456B74F89E0FE014D
:101C4000379601900D928A95E1F7CE0101960E9498
:101C5000790D2F960FB6F894DEBF0FBECDBFDF9182
:101C6000CF911F910F91FF90EF90BF90AF909F90F9
:101C70008F900895FE82ED82B801C9010E94F22B77
:101C80009FCF0E946F2A8FE08E9DF0018F9DF00DF7
:101C90001124EA56F74F89819A81918380838B8141
:101CA0009C81938382838D819E81958384831A8214
:101CB00019821C821B82B8CFEF92FF920F931F9361
:101CC000CF93DF93EC017B01198218821B821A8269
:101CD0001D821C82FB0101900020E9F731978F01E2
:101CE000061B170BB8010E94810D288139818111D3
:101CF00013C02115310519F0C9010E946F2A1982FC
:101D000018821D821C821B821A82DF91CF911F9143
:101D10000F91FF90EF9008951D830C83B701C901C7
:101D2000DF91CF911F910F91FF90EF900C94F22BC8
:101D3000FB0101900020E9F73197AF01461B570BDB
:101D4000DC01ED91FC910280F381E02D19948F92DA
:101D50009F92AF92BF92EF92FF920F931F93CF93F8
:101D6000DF93CDB7DEB7A1970FB6F894DEBF0FBEF5
:101D7000CDBF7C01FA01CB0119A2223008F42AE080
:101D80008E010F5D1F4F822E912CB12CA12CBF0113
:101D9000A50194010E947B28F901CA016A300CF563
:101DA000605DD8016E938D01232B242B252B79F7B1
:101DB00090E080E0109721F0BD01C7010E94980ECD
:101DC000A1960FB6F894DEBF0FBECDBFDF91CF91C5
:101DD0001F910F91FF90EF90BF90AF909F908F90C9
:101DE0000895695CDECF8F929F92AF92BF92CF929F
:101DF000DF92EF92FF920F931F93CF93DF937C01BB
:101E00008B016C0182E0C80ED11C4701E5E08E0E0B
:101E1000911CD0E0C0E0F60141916F0150E070E00C
:101E200060E02AE0C8010E94A70E5C016EE2C801D2
:101E30000E94E5028A0D9B1DC80FD91FC814D90442
:101E400051F7F701458150E070E060E02AE0C801F9
:101E50000E94A70E8C0F9D1FDF91CF911F910F91B4
:101E6000FF90EF90DF90CF90BF90AF909F908F90BA
:101E70000895CF93DF93BC018CE797E00E94980E02
:101E8000EC0169E872E08CE797E00E94980E8C0FF5
:101E90009D1FDF91CF9108952F923F924F925F92B5
:101EA0006F927F928F929F92AF92BF92CF92DF926A
:101EB000EF92FF921F93CF93DF93EC016A017B01B6
:101EC000722EAB019601CB01B6010E94C6296CE8C7
:101ED00072E0811126C046015701E894B7F82FEF50
:101EE0003FEF4FE75FE7C501B4010E94C6298111AA
:101EF0000CC02FEF3FEF4FE75FE7C501B4010E9431
:101F00002D2760E972E0181664F02FEF3FEF4FE7DE
:101F10005FE4C701B6010E94C1291816B4F464E950
:101F200072E0CE01DF91CF911F91FF90EF90DF9093
:101F3000CF90BF90AF909F908F907F906F905F9069
:101F40004F903F902F900C94980E2FEF3FEF4FE75C
:101F50005FECC701B6010E942D2787FDE0CF20E08E
:101F600030E0A901C701B6010E942D27312C212C98
:101F700087FF09C06DE2CE010E94E5021C01F7FA5D
:101F8000F094F7F8F09410E060E070E080E09FE3F8
:101F9000711641F020E030E040E251E40E9419293E
:101FA0001F5FF6CFA70196010E94AD282B013C01CF
:101FB0000E9492294B015C012AE0BC01A401CE01E0
:101FC0000E94A70E7C01E20CF31C1123C1F1C50194
:101FD000B4010E9432279B01AC01C301B2010E94EF
:101FE000AC284B015C016EE2CE010E94E502E80ED6
:101FF000F91E115020F120E030E040E251E4C5012B
:10200000B4010E9493272B013C010E9492294B01AD
:10201000B12CA12C2AE0B501A401CE010E94A70E8B
:10202000E80EF91EC501B4010E9432279B01AC01E4
:10203000C301B2010E94AC284B015C01DACFC70199
:10204000DF91CF911F91FF90EF90DF90CF90BF90E5
:10205000AF909F908F907F906F905F904F903F9048
:102060002F900895CF93DF93AB01BC0122E08CE762
:1020700097E00E944C0FEC0169E872E08CE797E072
:102080000E94980E8C0F9D1FDF91CF9108956115CE
:10209000710511F00C94980E90E080E008950F9374
:1020A0001F93CF93DF938901EC012496CE010E9408
:1020B000920BB801CE01DF91CF911F910F910C943B
:1020C0004710CF92DF92EF92FF92CF93DF936A0196
:1020D0007B01EC01249641E060E0CE010E94920B6E
:1020E00068E972E0CE010E94471022E0B701A60124
:1020F000CE010E944C0F6EE972E0CE01DF91CF91CC
:10210000FF90EF90DF90CF900C944710CF92DF922A
:10211000EF92FF92CF93DF936A017B01EC0124964B
:1021200040E060E0CE010E94920B61EA72E0CE01D5
:102130000E94471022E0B701A601CE010E944C0F79
:1021400068EA72E0CE01DF91CF91FF90EF90DF90CF
:10215000CF900C944710CF92DF92EF92FF92809134
:10216000630790916407DC01ED91FC910480F58197
:10217000E02D19956B017C01AC019B010E94C629E1
:10218000882389F08BEA92E00E94390FC12CD12C70
:1021900080ECE82E8FE7F82EC701B601FF90EF9094
:1021A000DF90CF90089562ED72E08CE797E00E9497
:1021B000471022E0B701A6018CE797E00E944C0F80
:1021C0008EE992E00E94390FE7CFCF92DF92EF9233
:1021D000FF928091630790916407DC01ED91FC917F
:1021E0000280F381E02D19956B017C016CED72E0AA
:1021F0008CE797E00E94471022E0B701A6018CE728
:1022000097E00E944C0FA7019601C701B6010E94FA
:10221000C629882389F08BEE92E00E94390FC12CE9
:10222000D12C80ECE82E8FE7F82EC701B601FF9085
:10223000EF90DF90CF9008956DED72E08CE797E01E
:102240000E94471022E0B701A6018CE797E00E94A8
:102250004C0F86E193E00E94390FE7CFEF92FF9297
:102260000F931F93CF93DF93FC011092FA06C2EAFB
:10227000D6E0DE0130E020E02830310569F490E05E
:10228000983009F042C010929D0610929C06109260
:10229000FA0622EA36E044C0CD01825A96400D91FA
:1022A0001C9111970115110561F112964D915C91E8
:1022B00013974115510529F1E080F1800E151F0596
:1022C00001F50281138140175107D9F42093FA06D2
:1022D000DC01AA55B94F86E0FB0101900D928A9569
:1022E000E1F78BE0829FF001839FF00D1124EE5502
:1022F000F94F1286DF91CF911F910F91FF90EF90D0
:1023000008952F5F3F4F1B96B7CF9E01488159819B
:10231000452BB1F44A815B81452B91F49093FA06E9
:1023200084E0D90101900D928A95E1F7D9011496C4
:1023300086E0FB0101900D928A95E1F7F901D9CF72
:102340009F5F2B969DCFEF92FF920F931F93CF939A
:10235000DF9300D000D0CDB7DEB7E0901D07F0903E
:102360001E0700911F07109120078FEFE816F8064F
:1023700039F486E0E5E1F2E00F3F100709F495C07B
:10238000F092FC06E092FB061093FE060093FD0619
:10239000E2EAF6E080E0883009F073C08093FA0644
:1023A00046E050E06FEF70E08FEF96E00E94E22B86
:1023B00086E0EFE1F7E0DF01982F1D929A95E9F7AB
:1023C000EFE0F2E0A5E0B7E0982F01900D929A952A
:1023D000E1F7EFE0F2E0A5E1B7E0982F01900D9270
:1023E0009A95E1F7F0922607E092250710932807C7
:1023F0000093270710921C0710921B0710921E07CC
:1024000010921D0720E031E030931407209313074A
:1024100030930E0720930D0728E030E0309310072B
:1024200020930F078093110794E09093120728E000
:1024300036E030930C0720930B0725E337E0309309
:10244000A1062093A0062AE230E030939F06209355
:102450009E06BE016F5F7F4FDB011D928A95E9F7F3
:102460008BEF96E00E942E1126960FB6F894DEBFF1
:102470000FBECDBFDF91CF911F910F91FF90EF90D5
:10248000089520813181E216F306D1F5228133814E
:1024900020173107A9F59481911103C095819923E3
:1024A00019F18093FA06349686E0AFEFB6E001901A
:1024B0000D928A95E1F786E0EFE0F2E0A5E0B7E063
:1024C00001900D928A95E1F788E090E090930C07D7
:1024D00080930B0780919E0690919F060E96909395
:1024E0009F0680939E06C0CF96819111DACF978187
:1024F0009111D7CF90859111D4CF91859111D1CFE2
:102500008F5F3B9648CFCF93DF93EC010E94A311DE
:1025100080919E0690919F068A9759F41092CF045D
:102520008091CE048D7F8093CE04DF91CF910C9467
:10253000EB070E94EB071D821C82DF91CF9108956B
:102540009C01AB0170939B0660939A0616161706C2
:1025500054F480919806909199068217930719F088
:10256000B9010C94D92B0895EF92FF920F931F930A
:10257000CF93DF93E0918F06F0919006C185D285CD
:10258000209709F456C0E0909506E1FE1FC08A81AD
:1025900081111CC080912107909122079783868327
:1025A0008091190790911A079183808380911B076E
:1025B00090911C0793838283809125079091260731
:1025C000982789279827089709F51A82E3FE31C0D2
:1025D0008D81882371F18C818093CF048091CE040A
:1025E00082608093CE048AE28093CC0468817981F2
:1025F0006B5271098091A0069091A106DF91CF9155
:102600001F910F91FF90EF900C94A0120E949905DA
:10261000F82E8A838823D1F20E9440048C012AE29A
:1026200030E04091CD0470E060E08F2D0E943806CC
:10263000CDCFDF91CF911F910F91FF90EF90089533
:10264000AF92BF92CF92DF92EF92FF920F931F93C0
:10265000CF93DF93E0909606F0909706F701C48D34
:10266000D58DD0909506209761F5D6FC03C0F12C4E
:10267000E12CD8C0E4E8F4E090E080E02181211171
:102680008AC022E1289FE001299FD00D1124CC5758
:10269000DB4FFE0111922A95E9F7C7018B5E954049
:1026A000959587954FEE5EEE849F9001859F300D46
:1026B000949F300D1124288381E08983F701D58F01
:1026C000C48FD1FE32C000919E0610919F06011565
:1026D000110559F189818823A9F181FD26C05E0188
:1026E000F2E0AF0EB11CC12CF50181915F018111A7
:1026F00059C0C8010E949905F5013197808388234C
:1027000009F450C02091A0063091A1062F5F3640F9
:102710004091CD0470E060E00E943806F4E0CF12F2
:1027200004C0F701818D8061818F898183FF0AC098
:10273000877F89838D2D826080939506F701818D37
:102740008F7E818F8091950684FD04C087FD02C035
:1027500085FF34C08E01095F1F4F6E01FCE0CF0E74
:10276000D11CF80181918F010E942004F80131975A
:102770001082C016D106A9F78A818823E9F0F701F3
:102780008481958198878F83898184608983F7010B
:10279000158E148E6CCF019672968430910509F0D7
:1027A0006DCF65CFC394F5E0CF129ECF8091CE045C
:1027B0008E7F8093CE04B5CF1982E9CF80FF48C0C9
:1027C0008F810E942004FE013796CE010B96218155
:1027D00021938E179F07D9F71B868F818823D1F10C
:1027E0009885911145C0EC84FD84E114F10409F44D
:1027F0003ECF95E0899FF0011124E952FB4FF3820F
:10280000E2820091A0061091A1060F5F164000938E
:10281000CC041127C80108968E0D9F1D009779F5ED
:102820001092CF04B7018091A0069091A1060E945A
:10283000A012F0929F06E0929E06DF91CF911F9129
:102840000F91FF90EF90DF90CF90BF90AF900895E1
:102850008C7019F6898181FF0ACF8F81811124C084
:102860001982F701158E148E80E180939506FFCEB4
:102870000E9440047C01892B09F4F9CEC2CF0E944A
:1028800099058093CF04882369F2B8016F5F7F4F69
:10289000870130E020E04F810E9438068091CE040D
:1028A00082608093CE04BECFF701818D8061818FDD
:1028B000DECECF92DF92EF92FF921F93CF93DF9302
:1028C000843009F450C1C0919606D091970625E353
:1028D00037E03093A1062093A00630939906209309
:1028E00098068330C9F4898D8F70833009F044C015
:1028F00088899989892B09F03FC088E080939506E3
:102900000E9420138091950685FFA0C510929B061A
:1029100010929A06198E51C0823009F0FDC0809144
:1029200094068F5F80939406811113C08091930663
:102930008F5F8093930681110CC0809192068F5F08
:1029400080939206811105C0809191068F5F8093DC
:10295000910610929F0610929E0610929B0610926E
:102960009A06898D982F9D7F953059F48A8D8F5FB7
:102970008A8F883709F4198E10929F0610929E064E
:10298000CDC18823C9F328893989232B09F4BFC015
:102990009A8D2FEF290F2A8F9111EECF9B8D9830B2
:1029A00031F02FEF280F223050F4953041F4198E7A
:1029B00080E8809395060E94201384E17CC0392F23
:1029C000953008F034E023E001C0220F3A95EAF791
:1029D0002A8F9F5F9B8F8F70833009F475C008F03A
:1029E00062C0813009F491C3823031F610922E0713
:1029F00080912E07826080932E0782E080933507B6
:102A000094E09093360780933707109238078CE252
:102A100090E090939F0680939E0680E680932D071A
:102A2000888580932907898580932A078A858093E2
:102A30002B078B8580932C078C85809325078D85AC
:102A4000809326078E85809327078F85809328079C
:102A500086E0809316078C819D8190932207809356
:102A600021078E819F8190932407809323071092E2
:102A70001A071092190710921C0710921B078881E1
:102A8000998190931E0780931D078A819B81909363
:102A9000200780931F07898D84FF5EC51092300741
:102AA00010922F0771C2863029F0883019F08430D7
:102AB00009F062CF81E180932E0788E290E0909345
:102AC0009F0680939E0621C084E0809395060E9415
:102AD000201380919806909199069093A106809377
:102AE000A00680919A0690919B06892B09F4DFC479
:102AF00088899989009709F4DAC4889690939F068B
:102B000080939E0688E180932E0780E587CF8F70A3
:102B1000833009F031CFF1CE853009F0A1C0E091CA
:102B20008F06F091900684819581892B09F424CF3A
:102B3000109297061092960689E297E09093A1066C
:102B40008093A006909399068093980610929B0616
:102B500010929A0610929F0610929E0688E080932B
:102B600095060E94B41280919A0690919B06009758
:102B700009F402CF9C01245E3F4F30939F062093BF
:102B80009E0630930F0720931007E0918F06F09177
:102B9000900620852093150721E1209316070896BB
:102BA00098278927982790932607809325071092C6
:102BB000280710922707848195819093220780939C
:102BC0002107868197819093240780932307109291
:102BD0001A071092190710921C0710921B07808188
:102BE000918190931E0780931D078281938190931A
:102BF000200780931F0785E397E09093A1068093B9
:102C0000A00681E10E94520780959095009709F4F3
:102C100003C1909328078093270785E480930D07CD
:102C200010920E0710921407109213078091E2057C
:102C30009091E30501969093E3058093E2059093CC
:102C400011078093120710921807109217070E941D
:102C5000DA078095909590931807809317075EC0C8
:102C600080910D07853409F087CEC0900F07D12CD5
:102C7000DC2CCC2480911007C80ED11C80919E06BC
:102C800090919F068C159D0508F476CED0929F06F4
:102C9000C0929E06809113078F7309F06DCE10913C
:102CA0001407111169CE0E94DA07019609F064CE6B
:102CB00080911607863009F4B2C08131D9F1813094
:102CC00009F05ACE80912107883009F055CE109234
:102CD00021078091230790912407873FCFEF9C071E
:102CE00038F1099690932407809323078091190760
:102CF00090911A0790931E0780931D0780911B07E0
:102D000090911C079093200780931F0710921A0739
:102D10001092190710921C0710921B07109295062B
:102D2000DF91CF911F91FF90EF90DF90CF900895AA
:102D30000896D8CF1CE1C11AD108D0929F06C09244
:102D40009E0689E297E09093A1068093A006809169
:102D5000270790912807892BD9F4209123073091D8
:102D60002407409121075091220760911907709123
:102D70001A07A0911B07B0911C07E3E6F6E086E076
:102D8000EF38F80761F4F0939006E0938F06F4CDE6
:102D900081E10E945207019609F0EECDDECF8481D9
:102DA00095810097B9F182179307A1F586819781E4
:102DB000009719F08417950769F580819181009734
:102DC000D1F4C281D381CD2BE9F4F0939006E09346
:102DD0008F06109297061092960682E080939506D1
:102DE00089E297E0909399068093980610929B064B
:102DF00010929A06B6CE8F3F980721F4C281D381F4
:102E0000219619F38617970729F482819381A817D1
:102E1000B907D9F23B96B3CF8FEF9FEFFACE86E09A
:102E20000E945207019609F0A7CD80912307909147
:102E30002407409121075091220760911907709152
:102E40001A07E0911B07F0911C07CBEED5E0298D06
:102E50002223A9F0AC81BD818A179B0781F4AE8142
:102E6000BF814A175B0759F4A881B9816A177B07AC
:102E700031F4AA81BB81EA17FB0709F44EC16E96B3
:102E800026E0C534D20719F310F320912E072F73D3
:102E9000223061F49093EA058093E9051092E805E9
:102EA000892B09F48EC084E08093E80580912E0779
:102EB00082FD62CD84E180932E0788E290E09093BA
:102EC0009F0680939E0680E580932D07309128070A
:102ED00080912C07809328072091270780912B074A
:102EE0008093270720932B079091260780912A072C
:102EF0008093260790932A07809125078093E80501
:102F00004091290740932507809329073F5F30931D
:102F10002C0731110DC02F5F20932B07211108C002
:102F20009F5F90932A07911103C08F5F80932907B9
:102F300080912107909122079093EA058093E905FB
:102F400020912307309124073093220720932107F3
:102F500090932407809323078091190790911A0773
:102F600090931E0780931D0780911B0790911C076B
:102F70009093200780931F0710921A071092190749
:102F800010921C0710921B0780E480931507809114
:102F90009E0690919F0690930F07809310071092C2
:102FA000340710923307109232071092310786E0EF
:102FB0000E94520780959095909332078093310735
:102FC0002CCEEBEEF5E090E080E0D0E0C0E0843085
:102FD000910531F484E08093E805209781F4CCCC0E
:102FE0003E2F2F2F618D611163C08093E8052EE184
:102FF000289FE001299FD00D1124C551DA4FD093AD
:103000009706C093960683E08A8F888F1E8A84E095
:103010008F8B1B8E1D821C825F834E8380911907CC
:1030200090911A079983888380911B0790911C07C0
:103030009B838A8381E0898F809191068C87809120
:1030400092068D87809193068E87809194068F8754
:1030500081E090E0998B888B809128078B87809105
:1030600027078A8780912607898780912507888787
:1030700081E090E00E94991F80912D07982F907F0A
:10308000913508F442C082958F708550990B880F56
:10309000991F880F991FE12FF0E0E817F9072CF42A
:1030A000E150F94F36A9311112C01093E8052DC037
:1030B000673031F4209731F0728D6A8D671710F008
:1030C0003C2F2D2F01967E96C32FD22F80CF3130EB
:1030D00011F41F5FE0CF27A93230D9F42430C9F4AE
:1030E0001093E80580AD91AD8927982789279093A3
:1030F000EA058093E905813012E0910710F080E045
:1031000092E09B8B8A8B9D8B8C8B80E180932E072A
:103110006FCC222351F2120FBECFD0939706C093EB
:1031200096061092950690912E0792FF07C0198E71
:1031300080E2809395060E9420131ECC80912D077B
:1031400082958F70880F880F8093E805C81AD10880
:10315000760184E1E81AF108F0929F06E0929E065B
:103160002F70223021F4892F8F738231D1F0E11436
:10317000F10419F4892F8370A1F039852A858B8594
:103180005091250748855413C2C140912607431327
:10319000BEC1309127073213BAC1209128072813E6
:1031A000B6C194FF49C0688979896115710509F430
:1031B00043C0CE010C960E94661F30912907809172
:1031C000E405381339C020912A078091E5052813BA
:1031D00033C090912B078091E60598132DC0809104
:1031E0002C074091E705841327C03C872D879E87D5
:1031F0008F87988D8B8D811118C08E892A8D921B97
:10320000282F269526952695921B890F8E8B97FD44
:1032100091952F89322F36953695231B920F9F8BD0
:10322000869586958695890F888F81E0809395068F
:10323000888D8A8F198A188A298DE22FEF70E150C4
:10324000E83008F099CBF0E08827E65DF64E8F4F26
:103250000C94CB2932194B19B5196A1A931AA41A6E
:10326000871A631A8091950680FF86CB83E0898F49
:1032700080E480939506198A188AE114F10431F0EC
:1032800082E480939506C7010E94991F10929B06C5
:1032900010929A0635CB8091950680FF5FC0809191
:1032A0002E078F73823109F059C080912D07982F16
:1032B000907F913598F182958F708550990B880F8A
:1032C000991F880F991FE12FF0E0E817F9072CF4F8
:1032D000E150F94F36A9311103C01093E8051EC023
:1032E000313011F41F5FEFCF27A9323099F5243028
:1032F00089F51093E80580AD91AD89279827892736
:103300009093EA058093E905813012E0910710F06F
:1033100080E092E09B8B8A8B9D8B8C8B83E0898FE6
:1033200080912507888780912607898780912707C4
:103330008A87809128078B8781E090E00E94991FFF
:1033400082E480939506198A188A10929F0610923B
:103350009E069CCF222309F2120FB5CF80E2809304
:1033600095060E942013198EA1CD80912E0780FF13
:1033700020C024FD1EC088899989892B09F0FCCAC8
:10338000C60143970E94991F80919506982F9061DE
:1033900090939506EF2819F08261809395060E941C
:1033A000201381E090E0998B888B88E0898F1B8EB9
:1033B00081CB85FF14C08091330790913407982703
:1033C00089279827AC014B5C584F5093A106409336
:1033D000A006E81AF90AF0929F06E0929E06409134
:1033E0009E0650919F06909195064115510541F01A
:1033F00024FD06C0926090939506CA010E94991F11
:1034000080912F07282F30E0322F2227809130071C
:10341000820F932F911D9093EA058093E9052C89E3
:103420003D892817390710F0892B21F43093EA05DC
:103430002093E9058091E9059091EA059B8B8A8BA1
:1034400080919506837009F497CA20CF84FF0AC043
:1034500010929B0610929A0681E090E0998B888BDF
:1034600084E0A4CF20919A0630919B062115310566
:10347000B9F080FF02C0198A188A88899989009753
:1034800089F48A899B898217930720F490939B067D
:1034900080939A0680919A0690919B06998B888BCF
:1034A0001B8E17CB90939B0680939A06F9CF809141
:1034B000950681FF61CA88E290E090939F06809311
:1034C0009E0680E120CB8091950680FF55CA198E1B
:1034D00080E12FCEE114F10419F0C7010E94991F79
:1034E00080919506817090912E0790FF15C08823DA
:1034F00081F087E0898F1A8E198A188A81E090E01E
:103500000E94991F80E1809395060E94201380E11C
:10351000D2CA86E0898FF2CF882399F085E0898F1F
:10352000198A188A29CAE114F10419F0C7010E9406
:10353000991F80912E0780FF04C087E0898F1A8E23
:10354000DDCFEF2821F718CA8091950680FF14CAB5
:1035500087E0898F1A8E10CA82E080932F0710921D
:10356000300712CDCF93DF93EC012C853D852115DB
:10357000310529F490E080E0DF91CF910895EA8948
:10358000EE23C1F381E08B8B85E0E89FF0011124ED
:10359000E952FB4F8E859F850796938382833093F4
:1035A000900620938F0685E00E94591480919E0614
:1035B00090919F06892BF1F2CE010E960E94831204
:1035C00081E090E0D9CF0895CF93DF93EC01898912
:1035D0000E942004198ADF91CF9108950F931F93C1
:1035E000CF93DF931F92CDB7DEB7FC01818988238B
:1035F00089F041E050E070E060E00E94B5048C0189
:10360000BE016F5F7F4F0E944A04898190E00130C4
:10361000110511F08FEF9FEF0F90DF91CF911F9168
:103620000F910895EF92FF920F931F93CF93DF9323
:10363000FC018189882391F1EB017F0170E060E05A
:103640000E94B5048C01BE010E944A04F701C189A1
:103650008C2F0E9440048017910769F48C2F0E94E0
:103660002004F701118AC801DF91CF911F910F91BA
:10367000FF90EF90089585E0C89FF0011124E95272
:10368000FB4F80819181800F911F91838083828184
:103690009381801B910B93838283E5CF80E090E040
:1036A000E3CFFC0181890C944004CF93DF93EC01BC
:1036B000898981110E9420048889898B188ADF9169
:1036C000CF910C944004EF92FF920F931F93CF93EE
:1036D000DF9300D01F92CDB7DEB78C01FB01828152
:1036E000811109C08381811106C08481811103C0C9
:1036F00085818823D9F041155105C1F0D8011C9668
:10370000ED90FC90228133813A83298384819581D5
:103710009C838B83742F652FE114F10469F1F70109
:10372000778366833183208393838283D8011C96B9
:103730008D919C911D97892B89F152968C918111C5
:103740002DC08EE096E00E949905F801828B2BE255
:1037500030E03787268721E090E0811101C020E02A
:10376000822F0F900F900F900F90DF91CF911F91AC
:103770000F91FF90EF900895CE0101960E945A0C90
:10378000D8011D969C938E931C97009739F0980151
:10379000225F3F4FFC0132872187C8CF80E090E055
:1037A000E0CF6F927F928F929F92AF92BF92CF9213
:1037B000DF92EF92FF920F931F93CF93DF93CDB7DA
:1037C000DEB7E5970FB6F894DEBF0FBECDBF4C0154
:1037D0008B013A0187E892E09A8389831C861B86D5
:1037E00048EE53E060E070E04D875E876F87788B2E
:1037F0002FE532E03A8729871E8A1D8AFE017796D7
:1038000026E0DF011D922A95E9F79AA789A71BA652
:103810001CA61DA61EA680917A0890917B08A091F7
:103820007C08B0917D088F8F98A3A9A3BAA38B833E
:103830009C83AD83BE8318861F82F801D8018D91C9
:10384000882309F45BC08E32D1F380538A30B8F3F9
:103850004B815C816D817E8180918C0890918D0877
:10386000A0918E08B0918F08481759076A077B0707
:1038700009F47CC20E94D8026F7077277C5FCE016A
:1038800009960E94C40C813009F073C287E892E067
:103890009E8F8D8F8B819C81AD81BE818F8F98A3F0
:1038A000A9A3BAA345E350E0BE01635E7F4FCE01FA
:1038B00009960E94631B892B09F072C010E000E09A
:1038C000CE0109960E94E90C0130110509F44EC0A1
:1038D000C801E5960FB6F894DEBF0FBECDBFDF91ED
:1038E000CF911F910F91FF90EF90DF90CF90BF90FD
:1038F000AF909F908F907F906F90089530E020E080
:1039000090E080E05AE04191442319F18430910520
:103910000CF09ECF4E3281F42F3F310511F00CF0A8
:1039200097CFABE2B0E0AC0FBD1FA80FB91F2C932F
:10393000019630E020E0E7CF529FB001539F700D19
:103940001124242F440F330B20533109260F371F26
:10395000DACF2F3F310511F00CF07ACF843091058A
:103960000CF076CF8C0F9D1FFC0123A7D401ED91A5
:10397000FC910488F589E02D87E892E09E8F8D8F79
:103980008BA59CA5ADA5BEA58F8F98A3A9A3BAA30F
:10399000A301BE01635E7F4FC40119958C0198CFCE
:1039A0000E94D80278876F8342E050E0BE01695FD1
:1039B0007F4FCE0109960E94FD0681E090E09E8F28
:1039C0008D8F42E050E0BE01635E7F4FCE010996CD
:1039D0000E94FD0680E091E09E8F8D8F42E050E0D6
:1039E000BE01635E7F4FCE0109960E94FD061E8ECA
:1039F0001D8E42E050E0BE01635E7F4FCE0109960E
:103A00000E94FD0642E050E0BE01635E7F4FCE01A2
:103A100009960E94FD0642E050E0BE01635E7F4FC2
:103A2000CE0109960E94FD067801D8018C91882369
:103A300011F18701F80181916F01882311F08E3215
:103A4000C1F45801AE18BF081A141B0484F4AFA6C1
:103A500041E050E0BE01615D7F4FCE0109960E94BA
:103A6000FD06A501B701CE0109960E94FD0676016B
:103A7000DCCF8601DFCF1FA641E050E0BE01615DD3
:103A80007F4FCE0109960E94FD0600E011E01E8FD7
:103A90000D8F42E050E0BE01635E7F4FCE0109967C
:103AA0000E94FD061E8F0D8F42E050E0BE01635E56
:103AB0007F4FCE0109960E94FD06CE0109960E9415
:103AC000B21A892B09F4FACE83E0E82EF12C25C036
:103AD000AB80BC80CD80DE80BE01675F7F4FCE01B2
:103AE0004D960E94BA068F8D98A1A9A1BAA1A816D9
:103AF000B906CA06DB0631F4CE0109960E94AB0670
:103B0000C59749F10EEF1FEF21E0E21AF10809F421
:103B1000D7CE0F3F100709F0D3CE0E94D8025B0129
:103B20006C01CE0109960E94551B1816190684F2E5
:103B30000E94D8026A197B098C099D096938734172
:103B40008105910508F00FC162E370E080E090E02C
:103B50000E94A602E6CFCE0109960E94511B0DEFEE
:103B60001FEF0C978CF24CE050E0BE01635E7F4F7C
:103B7000CE0109960E941F088F8D98A1982789274A
:103B800098279CAB8BAB4F8158852D8D3E8D42176E
:103B9000530711F497FD07C0CE0109960E94E41A5D
:103BA0000CEF1FEFB1CF8F709270892B39F0CE01DF
:103BB00009960E94E41A0BEF1FEFA6CFABA0BCA0A2
:103BC000BA24AB24BA2410E000E0A114B104E1F45B
:103BD000CE0109960E94E41A0AEF1FEF95CF8FA538
:103BE00081111AC0CE0109960E94E006CE01099605
:103BF0000E94E006CE0109960E94E006CE010996D9
:103C00000E94E0060F5F1F4F89A19AA1982789277C
:103C1000982708171907B8F441E050E0BE01615D2C
:103C20007F4FCE0109960E941F088FA58823B9F205
:103C30008FA59FEF980F9FA7882389F2CE01099641
:103C40000E94E006F5CFD12CC12C41E050E0BE012E
:103C50006B5C7F4FCE0109960E941F088DA9982F9B
:103C6000907C69F4882399F08DA99FEF980F9DAB04
:103C7000882351F0CE0109960E94E006F5CFCE01CF
:103C800009960E94E0061DAA8DA98111DECF42E0AF
:103C900050E0BE016F5C7F4FCE0109960E941F0865
:103CA00042E050E0BE01615D7F4FCE0109960E9467
:103CB0001F08CE0109960E94E006CE0109960E94D7
:103CC000E006CE0109960E94E006CE0109960E9408
:103CD000E00642E050E0BE016D5C7F4FCE010996E8
:103CE0000E941F0889A99AA981159140E9F48FA51E
:103CF00098A981159140C1F48BA99CA98115944084
:103D000039F0CE0109960E94E41A07EF1FEFFCCEAE
:103D100044E050E0BE01655D7F4FCE0109960E94F0
:103D20001F0801E010E0F0CE10E000E08BA99CA994
:103D30009827892798270817190738F4CE0109967C
:103D40000E94E0060F5F1F4FF1CFFFEFCF1ADF0A8F
:103D5000CA14DB0409F079CFCE0109960E94E41A57
:103D600006EF1FEFD1CE0FEF1FEFCECE0EEF1FEFFE
:103D7000AFCD10E000E0ACCD1F920F920FB60F92C6
:103D800011242F933F938F939F93AF93BF93809171
:103D9000740790917507A0917607B09177073091DD
:103DA000730723E0230F2D3758F50196A11DB11D90
:103DB000209373078093740790937507A0937607F9
:103DC000B09377078091780790917907A0917A074F
:103DD000B0917B070196A11DB11D80937807909348
:103DE0007907A0937A07B0937B07BF91AF919F911A
:103DF0008F913F912F910F900FBE0F901F901895AC
:103E000026E8230F0296A11DB11DD2CF1F920F925B
:103E10000FB60F9211240BB60F922F933F934F932F
:103E20005F936F937F938F939F93AF93BF93EF9322
:103E3000FF938CE797E00E946003FF91EF91BF91A1
:103E4000AF919F918F917F916F915F914F913F9132
:103E50002F910F900BBE0F900FBE0F901F901895D3
:103E60001F920F920FB60F9211240BB60F922F9341
:103E70008F939F93EF93FF93E0918C07F0918D07C1
:103E80008081E0919207F091930782FD1DC090819F
:103E9000809195078F5F8F7320919607821741F06D
:103EA000E0919507F0E0E458F84F958F80939507DF
:103EB000FF91EF919F918F912F910F900BBE0F90DB
:103EC0000FBE0F901F9018958081F2CFFC013381B7
:103ED000360F3093E705A72FBB2792819A0F909357
:103EE000E60521812093E50540814093E4059A177A
:103EF0001B0648F481E0820F8093E505811103C021
:103F00004F5F4093E40577273617170688F49F5FC5
:103F10009093E60591110CC08091E5058F5F809329
:103F2000E505811105C08091E4058F5F8093E4056C
:103F30000895CF93DF93C0919606D0919706BC0168
:103F4000CE0108960E94661FE4EEF5E08081888726
:103F50008181898782818A8783818B87DF91CF9155
:103F600008950F931F93CF93DF9310927F071092C2
:103F70007E0748EE53E060E070E040938007509386
:103F8000810760938207709383078DE492E090939A
:103F90007D0780937C0785EC90E090938907809360
:103FA000880784EC90E090938B0780938A0780ECDD
:103FB00090E090938D0780938C0781EC90E0909334
:103FC0008F0780938E0782EC90E090939107809307
:103FD000900786EC90E0909393078093920710925D
:103FE000950710929607109297071092980787E806
:103FF00092E090931A088093190810921B0810926F
:104000001C0810921D0810921E089093200880939F
:104010001F08109221081092220810922308109273
:10402000240890937F0880937E0810928008109255
:1040300081081092820810928308909379088093E7
:10404000780810927A0810927B0810927C081092DF
:104050007D08109267081092660840936808509394
:10406000690860936A0870936B082FE532E030931B
:104070006508209364081092710810927008E2E7B6
:10408000F8E026E0DF011D922A95E9F79093850874
:1040900080938408109286081092870810928808EE
:1040A0001092890890938B0880938A0810928C084C
:1040B00010928D0810928E0810928F08909391089C
:1040C000809390081092920810929308109294088E
:1040D0001092950890933F0980933E0910924009F1
:1040E00010924109109242091092430984EF91E025
:1040F000A0E0B0E08093360990933709A093380987
:10410000B093390910923A0910923B0910923C0978
:1041100010923D0940932E0950932F096093300966
:1041200070933109109232091092330910923409B8
:1041300010923509C6E9D8E00CE219E06BE872E0AC
:10414000CE010E945C0E1E821F82188619861A8676
:104150001B861C861D861E862F960C171D0771F761
:1041600010922D0910922C0987E892E0909345094E
:104170008093440910924609109247091092480909
:1041800010924909DF91CF911F910F910895CF931C
:10419000DF93CDB7DEB72E970FB6F894DEBF0FBE14
:1041A000CDBF789484B5826084BD84B5816084BDC0
:1041B00085B5826085BD85B5816085BD80916E00C5
:1041C000816080936E0010928100809181008260F6
:1041D0008093810080918100816080938100809133
:1041E00080008160809380008091B1008460809322
:1041F000B1008091B00081608093B0008091910007
:104200008260809391008091910081608093910001
:10421000809190008160809390008091A1008260E5
:104220008093A1008091A10081608093A100809182
:10423000A00081608093A000809121018260809322
:1042400021018091210181608093210180912001D1
:1042500081608093200180917A00846080937A004D
:1042600080917A00826080937A0080917A008160E8
:1042700080937A0080917A00806880937A0010920F
:10428000C100E0918C07F0918D0782E08083E0917E
:104290008807F09189071082E0918A07F0918B07D7
:1042A0008FEC808310929407E0919007F091910732
:1042B00086E08083E0918E07F0918F078081806196
:1042C0008083E0918E07F0918F07808188608083E2
:1042D000E0918E07F0918F07808180688083E09164
:1042E0008E07F0918F0780818F7D808385E190E03C
:1042F0000E94D329DC018FE192E011969C938E936A
:104300008EE017968C9317978BE0B82E1896BC9278
:104310001897EAE8F2E0E4911996EC931997E4E42F
:10432000F2E0E4911A96EC931A9740E85EE360E0BD
:1043300070E01F964D935D936D937C935297B0936D
:104340006407A0936307CD010E94B80A8BE090E058
:104350000E94D3297C0199E2C92E92E0D92ED7017F
:104360001196DC92CE9286E312968C931297F70107
:104370001382148215821682412C20EC522E2FE7D4
:10438000622E24E4722E17964D925D926D927C926D
:104390001A97F0926A07E09269078BE090E00E941A
:1043A000D3298C01FC01D182C08287E382831382EE
:1043B0001482158216824782508661867286109317
:1043C0006807009367078BE090E00E94D329FC0107
:1043D000D182C08288E3828313821482158216827E
:1043E0004782508661867286F0936607E093650780
:1043F000C7010E94E909D801ED91FC910190F0817B
:10440000E02DC80119958091650790916607DC0140
:10441000ED91FC910190F081E02D19958CE190E0F7
:104420000E94D3298C018FE392E0F801918380836D
:1044300086E090E0938382831782168283E392E082
:104440009583848387E080878FEF818788E08287E8
:1044500089E08387B4868CE085878DE08687178620
:10446000108A118A128A138A61E0C80104960E9498
:10447000AB0B1093720700937107C8010E94450CA3
:10448000D801ED91FC910680F781E02D2AE133E01F
:1044900050E040E070E060E0C801199564EF71E021
:1044A00080E090E00E94A6028091710790917207CF
:1044B000DC01ED91FC910680F781E02D27E233E0ED
:1044C00041E050E070E060E019958AE090E00E94E1
:1044D000D3298C0189E1F801808386E1818387E11A
:1044E000828388E183838AE184831582168217821E
:1044F0001086118610936E0700936D0761E089E1C5
:104500000E94450261E0D80111968C910E944502FB
:1045100061E0F80182810E94450261E0D8011396B2
:104520008C910E94450261E0F80184810E9445025D
:1045300070E060E0C8010E94CE0A61E070E0C8014E
:104540000E94CE0A62E070E0C8010E94CE0A63E0D9
:1045500070E0C8010E94CE0A64E070E0C8010E94C9
:10456000CE0A84E390E00E94D329FC0180E090E031
:10457000A8ECB1E480839183A283B38340E050E050
:1045800068E472E4448355836683778380E090E037
:10459000A0E0B0E480879187A287B387848795875E
:1045A000A687B78780E090E0A0E7B1E4808B918B8D
:1045B000A28BB38B80E090E0A0EFB1E4848B958B6D
:1045C000A68BB78B808F918FA28FB38F80E090E006
:1045D000A0E7B2E4848F958FA68FB78F80E090E03C
:1045E000A0EAB1E480A391A3A2A3B3A344A355A3DB
:1045F00066A377A380A791A7A2A7B3A788E592E0B7
:10460000A0E0B0E084A795A7A6A7B7A780EB94E0A9
:10461000A0E0B0E080AB91ABA2ABB3ABF0936C0782
:10462000E0936B0768E373E0CE0101960E945C0E95
:1046300082E493E00E94390F80912C0990912D091A
:104640000A9744F440EE53E964E070E0CE0101962D
:104650000E94A90DCE0101960E94790D6DE473E0D0
:10466000CE0101960E945C0E82E493E00E94390F15
:1046700080912C0990912D090A9744F440EC57E25F
:1046800069E070E0CE0101960E94A90DCE0101966D
:104690000E94790D0E94E510609305027093060256
:1046A00080930702909308020E94AB10609301026E
:1046B0007093020280930302909304028091710729
:1046C00090917207DC01ED91FC910084F185E02D61
:1046D00019958091710790917207DC01ED91FC9121
:1046E0000680F781E02D28E533E050E040E070E0FF
:1046F00060E019958091710790917207DC01ED914E
:10470000FC910680F781E02D27E633E041E050E0A0
:1047100070E060E0199564EF71E080E090E00E9445
:10472000A6020E94D80200913A0910913B092091FB
:104730003C0930913D096B017C01C01AD10AE20AA3
:10474000F30A009136091091370920913809309108
:104750003909C016D106E206F306E0F060933A0983
:1047600070933B0980933C0990933D090E94E510AA
:1047700060930502709306028093070290930802EB
:104780000E94AB10609301027093020280930302B7
:10479000909304020E94D8020091320910913309CB
:1047A00020913409309135096B017C01C01AD10A7E
:1047B000E20AF30A00912E0910912F092091300985
:1047C00030913109C016D106E206F30608F433C36E
:1047D00060933209709333098093340990933509BB
:1047E0008091710790917207DC01ED91FC9100843A
:1047F000F185E02D199586E793E00E94390F8091AD
:104800006F079091700700917107109172070097E0
:1048100009F020C1C0900502D0900602E090070286
:10482000F0900802F801A080B180A7019601C701AD
:10483000B6010E94C629D501882309F4F7C016964F
:10484000ED91FC912DE833E050E040E070E060E055
:10485000C8011995C0900102D0900202E0900302B5
:10486000F09004020091710710917207F801A08086
:10487000B180A7019601C701B6010E94C629D501E2
:104880008111DCC01496ED91FC91B701A601C8011D
:10489000199581E090E09093700780936F0787E00F
:1048A00094E00E94390FE0916D07F0916E078581C9
:1048B000882309F455C18FEC93E00E94390F8DE0F5
:1048C00094E00E94390FE0916D07F0916E078185A9
:1048D000882309F448C18FEC93E00E94390F87E1E7
:1048E00094E00E94390FE0916D07F0916E07868188
:1048F000882309F43BC18FEC93E00E94390F8FE1CC
:1049000094E00E94390FE0916D07F0916E07878166
:10491000882309F42EC18FEC93E00E94390F87E2BF
:1049200094E00E94390FE0916D07F0916E07808549
:10493000882309F421C18FEC93E00E94390F009184
:104940006B0710916C07F801408051806280738082
:10495000C480D580E680F78080859185A285B38567
:104960008B879C87AD87BE8784859585A685B7850F
:104970008F839887A987BA87809005029090060256
:10498000A0900702B0900802A3019201C501B401F2
:104990000E94C12918160CF0F2C020906D073090CB
:1049A0006E07F10185818111EAC061E080810E947A
:1049B000B90181E0D10115968C938090010290900D
:1049C0000202A0900302B0900402A7019601C50163
:1049D000B4010E942D2787FF0AC060906D07709078
:1049E0006E07D30119968C91882309F4E6C02F81B4
:1049F000388549855A85C701B6010E94AC289B01BC
:104A0000AC01C501B4010E94C12918160CF0DEC02A
:104A100080916D0790916E07FC012185222309F496
:104A2000D5C064E070E00E94CE0AD0C01296ED912D
:104A3000FC91B701A601C80119950CCF1696ED910E
:104A4000FC9126E933E050E040E061E070E0C8010D
:104A500019951FCF40916D0750916E07F801208185
:104A60003181D9011696ED91FC91DA01019769F532
:104A700015968C912EE933E0811102C026EA33E0CD
:104A800050E040E070E060E0C80119958091710746
:104A900090917207DC01ED91FC910680F781E02D89
:104AA000A0916D07B0916E0719962C91222351F0B9
:104AB0002FEA33E050E040E061E070E0199582E0D9
:104AC00090E0E9CE2BEB33E0F5CF16968C9128ECF5
:104AD00033E0811102C022ED33E050E040E070E0AD
:104AE00060E0C80119958091710790917207DC010F
:104AF000ED91FC910680F781E02DA0916D07B091BA
:104B00006E0717962C91222329F12DED33E050E00A
:104B100040E061E070E01995809171079091720713
:104B2000DC01ED91FC910680F781E02DA0916D07ED
:104B3000B0916E0718962C91222379F022EF33E082
:104B400041E050E070E060E019951092700710921B
:104B50006F07A5CE27EE33E0DACF2CEF33E0F0CFAE
:104B600089ED93E0AACE89ED93E0B7CE89ED93E08D
:104B7000C4CE89ED93E0D1CE89ED93E0DECE2B85D6
:104B80003C854D855E85C301B2010E94AC289B0126
:104B9000AC01C501B4010E942D2787FF0ECF809183
:104BA0006D0790916E07FC012581222309F405CF42
:104BB00070E060E00E94CE0A00CF61E0F3018481E2
:104BC0000E94B90181E0D30119968C93D80198967F
:104BD000CD90DD90ED90FC909B978091690790912E
:104BE0006A070E9467092B013C0180916707909139
:104BF00068070E9467094B015C01809165079091ED
:104C000066070E9467096F83788789879A876FE2B2
:104C100074E08CE797E00E944710C301B2010E9444
:104C2000321065E474E08CE797E00E944710C501FC
:104C3000B4010E9432106BE574E08CE797E00E94AB
:104C400047106F81788589859A850E943210A70167
:104C50009601C301B2010E942D2787FF59C0009120
:104C60006D0710916E07F8018681811151C061E0D6
:104C700081810E94B90181E0D80116968C9361E789
:104C800074E0CE0101960E945C0ECE0101960E9456
:104C9000670DCE0101960E94790DA7019601C5010D
:104CA000B4010E942D2787FF0AC000916D07109163
:104CB0006E07D80117968C91882309F452C020E022
:104CC00030E040E050E4C701B6010E94AD289B01EE
:104CD000AC01C501B4010E94C12918160CF058C0DE
:104CE00080916D0790916E07FC012781222309F4C2
:104CF0004FC062E070E00E94CE0A67E774E0CE0128
:104D000001960E945C0ECE0101960E94600D3CC08F
:104D100020E030E040E050E4C701B6010E94AD2839
:104D20009B01AC01C301B2010E94C12918160CF00D
:104D3000B4CF80916D0790916E07FC0126812223EC
:104D400009F4ABCF61E070E00E94CE0A61E774E045
:104D5000CE0101960E945C0ECE0101960E94600D6C
:104D600098CF61E0F80182810E94B90181E0D80109
:104D700017968C9367E774E0CE0101960E945C0E53
:104D8000CE0101960E94670DCE0101960E94790D19
:104D9000A70196016F81788589859A850E942D27C4
:104DA00087FF09C000916D0710916E07D801189612
:104DB0008C91882349F120E030E040E050E4C701C5
:104DC000B6010E94AD289B01AC016F817885898571
:104DD0009A850E94C129181674F580916D079091EB
:104DE0006E07FC012085222331F163E070E00E9410
:104DF000CE0A6DE774E0CE0101960E945C0ECE01F2
:104E000001960E94600D13C061E0F80183810E9449
:104E1000B90181E0D80118968C936DE774E0CE015A
:104E200001960E945C0ECE0101960E94670DCE0194
:104E300001960E94790D0E94EF0373CCCF93DF930C
:104E4000CCE2D9E02F97CE010E94790D88E0C639D7
:104E5000D807C1F7DF91CF9108950E946F2708F41A
:104E600081E00895E89409C097FB3EF49095809501
:104E7000709561957F4F8F4F9F4F9923A9F0F92F20
:104E800096E9BB279395F695879577956795B7959E
:104E9000F111F8CFFAF4BB0F11F460FF1BC06F5F84
:104EA0007F4F8F4F9F4F16C0882311F096E911C096
:104EB000772321F09EE8872F762F05C0662371F0B7
:104EC00096E8862F70E060E02AF09A95660F771FCB
:104ED000881FDAF7880F9695879597F90895990FA7
:104EE0000008550FAA0BE0E8FEEF16161706E807B4
:104EF000F907C0F012161306E407F50798F0621BD5
:104F0000730B840B950B39F40A2661F0232B242BA9
:104F1000252B21F408950A2609F4A140A6958FEFC8
:104F2000811D811D08950E94A6270C9417280E94B8
:104F3000092838F00E94102820F0952311F00C94D5
:104F400000280C94062811240C944B280E94282831
:104F500070F3959FC1F3950F50E0551F629FF001CC
:104F6000729FBB27F00DB11D639FAA27F00DB11DE5
:104F7000AA1F649F6627B00DA11D661F829F22276E
:104F8000B00DA11D621F739FB00DA11D621F839FF5
:104F9000A00D611D221F749F3327A00D611D231FCB
:104FA000849F600D211D822F762F6A2F11249F5719
:104FB00050409AF0F1F088234AF0EE0FFF1FBB1F1C
:104FC000661F771F881F91505040A9F79E3F5105DB
:104FD00080F00C9400280C944B285F3FE4F3983E3B
:104FE000D4F3869577956795B795F795E7959F5F85
:104FF000C1F7FE2B880F911D9695879597F9089517
:1050000097F99F6780E870E060E008959FEF80EC7B
:10501000089500240A94161617061806090608951E
:1050200000240A9412161306140605060895092E84
:105030000394000C11F4882352F0BB0F40F4BF2BF3
:1050400011F460FF04C06F5F7F4F8F4F9F4F089533
:1050500057FD9058440F551F59F05F3F71F0479529
:10506000880F97FB991F61F09F3F79F0879508950E
:10507000121613061406551FF2CF4695F1DF08C02D
:10508000161617061806991FF1CF8695710561054A
:1050900008940895E894BB2766277727CB0197F9F2
:1050A0000895052E97FB1EF400940E94682857FD72
:1050B00007D00E947B2807FC03D04EF40C9468288C
:1050C00050954095309521953F4F4F4F5F4F089534
:1050D00090958095709561957F4F8F4F9F4F089564
:1050E0000E949D28A59F900DB49F900DA49F800DB8
:1050F000911D11240895A1E21A2EAA1BBB1BFD01CC
:105100000DC0AA1FBB1FEE1FFF1FA217B307E407A6
:10511000F50720F0A21BB30BE40BF50B661F771FFE
:10512000881F991F1A9469F76095709580959095DE
:105130009B01AC01BD01CF010895A29FB001B39FB7
:10514000C001A39F700D811D1124911DB29F700D90
:10515000811D1124911D08955058BB27AA270E9434
:10516000C4280C9417280E94092838F00E9410289F
:1051700020F039F49F3F19F426F40C9406280EF41D
:10518000E095E7FB0C940028E92F0E94282858F3AB
:10519000BA17620773078407950720F079F4A6F51C
:1051A0000C944A280EF4E0950B2EBA2FA02D0B017B
:1051B000B90190010C01CA01A0011124FF27591B5C
:1051C00099F0593F50F4503E68F11A16F040A22F62
:1051D000232F342F4427585FF3CF469537952795D3
:1051E000A795F0405395C9F77EF41F16BA0B620BD2
:1051F000730B840BBAF09150A1F0FF0FBB1F661F19
:10520000771F881FC2F70EC0BA0F621F731F841F5B
:1052100048F4879577956795B795F7959E3F08F081
:10522000B0CF9395880F08F09927EE0F9795879543
:1052300008950E942D290C9417280E94102858F0D8
:105240000E94092840F029F45F3F29F00C940028BF
:1052500051110C944B280C9406280E94282868F3BE
:105260009923B1F3552391F3951B550BBB27AA271F
:1052700062177307840738F09F5F5F4F220F331F59
:10528000441FAA1FA9F335D00E2E3AF0E0E832D021
:1052900091505040E695001CCAF72BD0FE2F29D024
:1052A000660F771F881FBB1F261737074807AB07F6
:1052B000B0E809F0BB0B802DBF01FF2793585F4F6B
:1052C0003AF09E3F510578F00C9400280C944B283E
:1052D0005F3FE4F3983ED4F3869577956795B7954D
:1052E000F7959F5FC9F7880F911D9695879597F958
:1052F0000895E1E0660F771F881FBB1F62177307D1
:105300008407BA0720F0621B730B840BBA0BEE1FE5
:1053100088F7E09508950E9492296894B1110C9441
:105320004B2808950E94302888F09F5798F0B92F95
:105330009927B751B0F0E1F0660F771F881F991FCA
:105340001AF0BA95C9F714C0B13091F00E944A28FA
:10535000B1E008950C944A28672F782F8827B85F0A
:1053600039F0B93FCCF3869577956795B395D9F722
:105370003EF490958095709561957F4F8F4F9F4F2C
:1053800008950E946F2708F48FEF08950E946F27F9
:10539000880B990B0895EE0FFF1F881F8BBF079096
:1053A000F691E02D19940F931F93CF93DF938230E2
:1053B000910510F482E090E0E0914C09F0914D09E4
:1053C00030E020E0B0E0A0E0309799F421153105FD
:1053D00009F44AC0281B390B24303105D8F58A81DD
:1053E0009B816115710589F1FB0193838283FE0125
:1053F00011C0408151810281138148175907E0F0A3
:105400004817590799F4109761F012960C93129768
:1054100013961C933296CF01DF91CF911F910F917C
:10542000089500934C0910934D09F4CF21153105CF
:1054300051F04217530738F0A901DB019A01BD0171
:10544000DF01F801C1CFEF01F9CF90934D098093AF
:105450004C09CDCFFE01E20FF31F819391932250AF
:10546000310939832883D7CF20914A0930914B09DC
:10547000232B41F420910B0230910C0230934B0905
:1054800020934A092091090230910A022115310521
:1054900041F42DB73EB740910D0250910E02241BEE
:1054A000350BE0914A09F0914B09E217F307A0F49C
:1054B0002E1B3F0B2817390778F0AC014E5F5F4F6A
:1054C0002417350748F04E0F5F1F50934B09409348
:1054D0004A09819391939FCFF0E0E0E09CCFCF9376
:1054E000DF930097E9F0FC01329713821282A091BA
:1054F0004C09B0914D09ED0130E020E01097A1F486
:1055000020813181820F931F20914A0930914B09EC
:105510002817390709F061C0F0934B09E0934A0955
:10552000DF91CF910895EA01CE17DF07E8F54A81B0
:105530005B819E0141155105B1F7E901FB83EA83C7
:1055400049915991C40FD51FEC17FD0761F4808173
:1055500091810296840F951FE90199838883828146
:1055600093819B838A83F0E0E0E012968D919C9179
:1055700013970097B9F52D913C911197CD010296A3
:10558000820F931F20914A0930914B092817390740
:1055900039F6309751F510924D0910924C09B0939D
:1055A0004B09A0934A09BCCFD383C2834081518168
:1055B000840F951FC817D90761F44E5F5F4F88812C
:1055C0009981480F591F518340838A819B8193831E
:1055D00082832115310509F0B0CFF0934D09E09396
:1055E0004C099ECFFD01DC01C0CF13821282D7CFC0
:1055F0004F925F926F927F928F929F92AF92BF92E3
:10560000CF92DF92EF92FF920F931F93CF93DF938E
:105610008C01009799F4CB01DF91CF911F910F91ED
:10562000FF90EF90DF90CF90BF90AF909F908F90C2
:105630007F906F905F904F900C94D329FC01E60F00
:10564000F71F9C0122503109E217F30708F4AEC09E
:10565000D901CD91DC911197C617D70720F1C5303C
:10566000D10578F0CE0104978617970750F0C61B36
:10567000D70B2297C193D1936D937C93CF010E9456
:105680006F2AC801DF91CF911F910F91FF90EF908A
:10569000DF90CF90BF90AF909F908F907F906F9052
:1056A0005F904F9008955B01AC1ABD0A4C018C0EBF
:1056B0009D1EA0914C09B0914D09512C412CF12C0B
:1056C000E12C109731F580914A0990914B0988158A
:1056D000990509F05CC04616570608F058C080913D
:1056E000090290910A02009741F48DB79EB740914C
:1056F0000D0250910E02841B950BE817F90708F074
:1057000055C0F0934B09E0934A09F9017183608316
:10571000B8CF8D919C91119712966C901297139619
:105720007C901397A815B90559F56C0142E0C40E99
:10573000D11CCA14DB0420F1AC014A195B09DA015F
:105740001296159780F06282738251834083D9014B
:105750006D937C93E114F10471F0D7011396FC93DF
:10576000EE9312978ECF22968C0F9D1FF901918395
:105770008083F301EFCFF0934D09E0934C0981CF83
:105780004816590608F42C017D01D3019ACFCB01AC
:105790000E94D3297C01009749F0AE01B8010E9414
:1057A000D92BC8010E946F2A87016BCF10E000E05F
:1057B00068CFFB01DC0102C001900D9241505040C6
:1057C000D8F70895DC0101C06D9341505040E0F7D7
:1057D0000895FB01DC018D91019080190110D9F32E
:1057E000990B0895FB01DC0101900D920020E1F777
:1057F000089511E0C5E8D1E000E006C0802FFE0169
:105800000E94CB292196011DC638D10780E00807E8
:06581000A9F7F894FFCF98
:10581600FF0000C07F0000C07F00004E098000002E
:105826000000000000FFFFFFFFFFFF00000000B8C0
:105836000A3C0AF20900000000E909EE09EE090037
:10584600000000890BEC022608E402000000004577
:105856000C861061104F10420C000000008203EC11
:10586600021903CF034A0328033C03000000001576
:1058760007FD062608E41A511BE006EE1AC40C2B97
:1058860007E90C631BD11BB21A551B121B1F08BA62
:1058960006AB0600000000F30E0D0A006E616E00F6
:1058A600696E66006F76660048756D3A20002025A1
:1058B6000054656D703A2000204300C2A145727203
:1058C6006F7220616C206C656572206C6120687552
:1058D6006D656461642064656C2073656E736F72B8
:1058E600210048756D656461643A20003E54656D1B
:1058F60070657261747572613A2000C2A145727258
:105906006F7220616C206C656572206C6120746515
:105916006D70657261747572612064656C20736563
:105926006E736F722100202A4300496E69636961B4
:105936006E646F2E2E2E00536D6172742047726551
:10594600656E486F75736500737072617965724F25
:105956006E004164642054696D6D657200737072E7
:10596600617965724F666600477275706F203220E6
:105976002D205550534F00536973742E456D626543
:105986006269646F730041637475616C697A616EF4
:10599600646F20646973706C61792E2E0054656D96
:1059A600703A202D2D0048756D3A202D2D00466148
:1059B6006E3A204F4E0046616E3A204F46460053DF
:1059C6007072617965723A204F4E00537072617938
:1059D60065723A204F46460050756D70313A204F39
:1059E6004E0050756D70313A204F46460050756D29
:1059F60070323A204F4E0050756D70323A204F4645
:105A0600460050756D70333A204F4E0050756D70DC
:105A1600333A204F46460046616E3A200053707274
:105A2600617965723A200050756D70313A200050E8
:105A3600756D70323A200050756D70333A2000480B
:105A4600756D656461642064656C207375656C6F43
:105A560020313A200048756D656461642064656C88
:105A6600207375656C6F20323A200048756D656449
:105A760061642064656C207375656C6F20333A2011
:105A86000070756D70310070756D70320070756DD7
:045A96007033000069
:00000001FF
