:020000040000FA
:100000000C9462000C948A000C948A000C948A0070
:100010000C948A000C948A000C948A000C948A0038
:100020000C948A000C948A000C948A000C948A0028
:100030000C948A000C948A000C948A000C948A0018
:100040000C94AD070C948A000C941D080C94F707CF
:100050000C948A000C948A000C948A000C948A00F8
:100060000C948A000C948A000000000023002600F3
:10007000290000000000240027002A0000000000E2
:10008000250028002B0004040404040404040202D4
:100090000202020203030303030301020408102007
:1000A0004080010204081020010204081020000012
:1000B0000008000201000003040700000000000027
:1000C0000000860A11241FBECFEFD8E0DEBFCDBFEF
:1000D00011E0A0E0B1E0ECE7FCE102C005900D9278
:1000E000AE3EB107D9F722E0AEEEB1E001C01D92FD
:1000F000A83AB207E1F710E0C2E6D0E004C02197C9
:10010000FE010E94110DC136D107C9F70E944F08A8
:100110000C943C0E0C94000090E0FC01E255FF4F63
:100120002491FC01E656FF4F3491FC01EA57FF4F42
:10013000E491EE23C9F0222339F0233001F1A8F431
:10014000213019F1223029F1F0E0EE0FFF1FE458C1
:10015000FF4FA591B4918FB7F894EC91611126C02F
:1001600030953E233C938FBF08952730A9F0283067
:10017000C9F0243049F7809180008F7D03C08091C1
:1001800080008F7780938000DFCF84B58F7784BD28
:10019000DBCF84B58F7DFBCF8091B0008F778093CC
:1001A000B000D2CF8091B0008F7DF9CF3E2BDACF57
:1001B000CF93DF9390E0FC01E656FF4F24918A57DE
:1001C0009F4FFC0184918823D1F090E0880F991F04
:1001D000FC01EE58FF4FA591B491FC01E458FF4F8C
:1001E000C591D491623071F49FB7F8943C91822FFD
:1001F000809583238C93E8812E2B28839FBFDF91EA
:10020000CF9108958FB7F894EC912E2B2C938FBF3C
:10021000F6CF3FB7F8948091FF0190910002A09132
:100220000102B091020226B5A89B05C02F3F19F02C
:100230000196A11DB11D3FBFBA2FA92F982F882766
:10024000BC01CD01620F711D811D911D42E0660F41
:10025000771F881F991F4A95D1F708958F929F9213
:10026000AF92BF92CF92DF92EF92FF924B015C016F
:100270000E9409016B017C010E9409016C197D0932
:100280008E099F09683E734081059105A8F321E01E
:10029000821A9108A108B10888EEC80E83E0D81E22
:1002A000E11CF11C81149104A104B10429F7FF9011
:1002B000EF90DF90CF90BF90AF909F908F90089578
:1002C000AF92BF92CF92DF92EF92FF920F931F9364
:1002D000CF93DF936C017B018B01040F151FEB01A2
:1002E0005E01AE18BF08C017D10759F06991D60159
:1002F000ED91FC910190F081E02DC6010995892BCB
:1003000079F7C501DF91CF911F910F91FF90EF9089
:10031000DF90CF90BF90AF900895FC01538D448D36
:10032000252F30E0842F90E0821B930B541710F0A0
:10033000CF96089501970895FC01918D828D9817AD
:1003400061F0A28DAE0FBF2FB11D5D968C91928D85
:100350009F5F9F73928F90E008958FEF9FEF0895B6
:10036000FC01918D828D981731F0828DE80FF11D7F
:10037000858D90E008958FEF9FEF0895FC01918D9A
:10038000228D892F90E0805C9F4F821B91098F7393
:100390009927089583E092E00E94BE0121E0892B15
:1003A00009F420E0822F089580E090E0892B29F065
:1003B0000E94CA0181110C9400000895FC01A48DD3
:1003C000A80FB92FB11DA35ABF4F2C91848D90E077
:1003D00001968F739927848FA689B7892C93A0895A
:1003E000B1898C91837080648C93938D848D9813E4
:1003F00006C00288F389E02D80818F7D8083089577
:10040000EF92FF920F931F93CF93DF93EC0181E064
:10041000888F9B8D8C8D98131AC0E889F98980810B
:1004200085FF15C09FB7F894EE89FF896083E8893E
:10043000F98980818370806480839FBF81E090E030
:10044000DF91CF911F910F91FF90EF900895F62EBD
:100450000B8D10E00F5F1F4F0F731127E02E8C8D57
:100460008E110CC00FB607FCFACFE889F98980819C
:1004700085FFF5CFCE010E94DE01F1CFEB8DEC0FB1
:10048000FD2FF11DE35AFF4FF0829FB7F8940B8FB9
:10049000EA89FB8980818062CFCFCF93DF93EC0123
:1004A000888D8823B9F0AA89BB89E889F9898C915C
:1004B00085FD03C0808186FD0DC00FB607FCF7CF18
:1004C0008C9185FFF2CF808185FFEDCFCE010E9418
:1004D000DE01E9CFDF91CF910895089590E080E0AB
:1004E0000895CF92DF92EF92FF92CF93DF93DC01DA
:1004F0001796CC911797D0E06111DC2F18962C91AC
:10050000189730E0220F331F28593F4F50E040E04A
:10051000F90185919491FC01F080BA0190E080E0AE
:10052000EF2DEC23ED1310C04F5F5F4F1D96CD9064
:10053000DD90ED90FC9050976C157D058E059F0524
:1005400038F36FEF7FEFCB01DF91CF91FF90EF900A
:10055000DF90CF9008958F929F92AF92BF92CF92EB
:10056000DF92EF92FF920F931F93CF93DF93CDB75C
:10057000DEB7C054D1400FB6F894DEBF0FBECDBF7A
:100580002FB7F8944091A0025091A1026091A2026D
:100590007091A3022FBFFC0101851285238534854C
:1005A0006A017B01C01AD10AE20AF30A97018601A7
:1005B000003D174021053105B0F4FC018189C05C84
:1005C000DE4F0FB6F894DEBF0FBECDBFDF91CF91E7
:1005D0001F910F91FF90EF90DF90CF90BF90AF9061
:1005E0009F908F9008958C01FC014187528763870B
:1005F00074871482138212821182108262E08581D4
:100600000E94D80061E070E080E090E00E942E013E
:1006100061E0F80185810E94D80060E0F8018581E1
:100620000E948C00F80186818551823028F58BE28A
:1006300091E10197F1F762E0F80185810E94D8000D
:10064000F801828990E08230910538F0880F991F77
:10065000880F991F05970197F1F7F89460E0C8019A
:100660000E9471026F3F7F4F8F4F9F4F61F4F801DF
:10067000118A789480E0A3CF64E170E080E090E09C
:100680000E942E01D8CF61E0C8010E9471026F3F25
:100690007F4F8F4F9F4F59F3CE0101967C015E0132
:1006A0009FEBA91A9EEFB90A670160E0C8010E949A
:1006B0007102F601608371838283938361E0C801D4
:1006C0000E947102F6016483758386839783F8E044
:1006D000CF0ED11CCA14DB0441F7789430E020E03F
:1006E000F70180809180A280B3804481558166812A
:1006F0007781FFEF8F169F06AF06BF0631F04F3FA1
:100700008FEF58076807780719F4F801118AB2CFFC
:10071000F90183E0F595E7958A95E1F7E00FF11F80
:100720008081880F84169506A606B706F0F08083B0
:100730002F5F3F4FF8E0EF0EF11C2832310581F6B4
:10074000F801448120818181280F3327331F828162
:10075000280F311D8381820F932F911D99274817F0
:10076000190699F681E0818B2ACF8160E0CFCF9284
:10077000DF92EF92FF92CF93DF93EC0102960E94FB
:10078000AB02882341F088858B3028F08D3040F013
:100790008551823030F160E070E080EC9FE71AC054
:1007A0006B8170E090E080E00E94C80B2DEC3CEC87
:1007B0004CEC5DE30E947D0C6B017C016A8170E072
:1007C00090E080E00E94C80B9B01AC01C701B6011C
:1007D0000E94B40ADF91CF91FF90EF90DF90CF900D
:1007E00008956A817B8176276727762790E080E0ED
:1007F0000E94C60B2DEC3CEC4CEC5DE30E947D0CA2
:10080000E9CFCF92DF92EF92FF921F93CF93DF93C6
:10081000EC0102960E94AB02882339F088858C3067
:1008200009F44DC038F48B30E1F060E070E080EC0A
:100830009FE73DC085518230C0F71C81612F70E079
:10084000762F662766277F778D81682B90E080E082
:100850000E94C60B2DEC3CEC4CEC5DE30E947D0C41
:1008600048C06C8170E090E080E00E94C60B6B0194
:100870007C01CD81C7FF0AC0AC019B0160E070E044
:1008800080E89FEB0E94B30A6B017C01CF706C2F54
:1008900070E090E080E00E94C80B2DEC3CEC4CEC4A
:1008A0005DE30E947D0CA70196010E94B40ADF91CE
:1008B000CF911F91FF90EF90DF90CF9008951C8112
:1008C000612F70E090E080E00E94C60B6B017C011C
:1008D0006D816F7070E090E080E00E94C80B2DEC9D
:1008E0003CEC4CEC5DE30E947D0CA70196010E945C
:1008F000B40A17FFDCCF9058DACFCF93DF93EC0127
:1009000062E08F810E94D8002FB7F8948091A002F6
:100910009091A102A091A202B091A3022FBF805D8D
:100920009740A109B1098B879C87AD87BE8787E374
:100930008C8BDF91CF910895FB0101900020E9F7A6
:100940003197AF01461B570BDC01ED91FC91028002
:10095000F381E02D09948F929F92AF92BF92EF9214
:10096000FF920F931F93CF93DF93CDB7DEB7A1977D
:100970000FB6F894DEBF0FBECDBF7C01FA01CB01EC
:1009800019A2223008F42AE08E010F5D1F4F822E3B
:10099000912CB12CA12CBF01A50194010E94EF0C58
:1009A000F901CA016A300CF5605DD8016E938D01C2
:1009B000232B242B252B79F790E080E0109721F052
:1009C000BD01C7010E949C04A1960FB6F894DEBF3A
:1009D0000FBECDBFDF91CF911F910F91FF90EF9090
:1009E000BF90AF909F908F900895695CDECFCF93BA
:1009F000DF93BC0183E092E00E949C04EC0168E379
:100A000071E083E092E00E949C048C0F9D1FDF91B7
:100A1000CF9108952F923F924F925F926F927F9263
:100A20008F929F92AF92BF92CF92DF92EF92FF92FE
:100A30001F93CF93DF93EC016A017B01722EAB0110
:100A40009601CB01B6010E94EA0C6BE371E08111C3
:100A500026C046015701E894B7F82FEF3FEF4FE764
:100A60005FE7C501B4010E94EA0C81110CC02FEFB1
:100A70003FEF4FE75FE7C501B4010E94200B6FE332
:100A800071E0181664F02FEF3FEF4FE75FE4C70106
:100A9000B6010E94780C1816B4F463E471E0CE013C
:100AA000DF91CF911F91FF90EF90DF90CF90BF909B
:100AB000AF909F908F907F906F905F904F903F90FE
:100AC0002F900C949C042FEF3FEF4FE75FECC70192
:100AD000B6010E94200B87FDE0CF20E030E0A901A5
:100AE000C701B6010E94200B312C212C87FF0DC0BD
:100AF000E881F9810190F081E02D6DE2CE01099548
:100B00001C01F7FAF094F7F8F09410E060E070E060
:100B100080E09FE3711641F020E030E040E251E4D4
:100B20000E94250B1F5FF6CFA70196010E94B40A11
:100B30002B013C010E94970B4B015C012AE0BC0198
:100B4000A401CE010E94AB047C01E20CF31C112332
:100B5000E1F1C501B4010E94C60B9B01AC01C301C8
:100B6000B2010E94B30A4B015C01E881F981019056
:100B7000F081E02D6EE2CE010995E80EF91E1150CC
:100B800020F120E030E040E251E4C501B4010E94D0
:100B90007D0C2B013C010E94970B4B01B12CA12C29
:100BA0002AE0B501A401CE010E94AB04E80EF91EB3
:100BB000C501B4010E94C60B9B01AC01C301B20187
:100BC0000E94B30A4B015C01DACFC701DF91CF91DC
:100BD0001F91FF90EF90DF90CF90BF90AF909F90CC
:100BE0008F907F906F905F904F903F902F900895DF
:100BF000CF93DF93EC0160E08E810E948C0061E076
:100C00008E810E948C0060E08E810E948C008BE8B7
:100C100091E00197F1F7DF91CF910895CF92DF92A4
:100C2000EF92FF920F931F93CF93DF936C017C01A0
:100C300087E0E80EF11CD0E0C0E0062F10E0B8011C
:100C40000C2E02C0759567950A94E2F76170F70162
:100C500081917F010E948C002196C430D10579F7E3
:100C6000C601DF91CF911F910F91FF90EF90DF9020
:100C7000CF900C94F805CF92DF92EF92FF920F93F2
:100C80001F93CF93DF93EC01F62E642F8C810E948B
:100C90008C008D818F3F19F060E00E948C000F2D39
:100CA00010E08F8584FF25C06E0187E0C80ED11C3F
:100CB000F12CE12CB8010E2C02C0759567950A94B1
:100CC000E2F76170F60181916F010E948C00FFEFE5
:100CD000EF1AFF0A88E0E816F10461F7CE01DF9110
:100CE000CF911F910F91FF90EF90DF90CF900C94D8
:100CF000F805B80184E0759567958A95E1F7CE010E
:100D00000E940E066F2DCE01DF91CF911F910F91A2
:100D1000FF90EF90DF90CF900C940E0641E00E9480
:100D20003B0681E090E0089540E00C943B060F9371
:100D30001F93CF93DF93EC01623019F48F858860A5
:100D40008F876B8B1C8A80E48D8B80E18E8B80E596
:100D50008F8B61E08C810E94D8008D818F3F19F0CC
:100D600061E00E94D80061E08E810E94D8008E016F
:100D700098012C1B3D0B8F8584FD0DC084E090E015
:100D80000F5F1F4F281739074CF461E0F801868187
:100D90000E94D800EDCF88E090E0F2CF8BE39DE099
:100DA0000197F1F760E08C810E948C0060E08E81F9
:100DB0000E948C008D818F3F19F060E00E948C00B2
:100DC0006F8564FD39C063E0CE010E940E060BE41E
:100DD00016E4C8010197F1F763E0CE010E940E0608
:100DE000C8010197F1F763E0CE010E940E0683E58A
:100DF00092E00197F1F762E0CE010E940E066F8546
:100E00006062CE010E94940684E0888B6CE0CE0183
:100E10000E94940661E0CE010E9494068BE39FE15C
:100E20000197F1F782E0898B66E0CE01DF91CF91E7
:100E30001F910F910C9494066062CE010E9494065B
:100E40008BE496E40197F1F76F856062CE010E9412
:100E5000940683E592E00197F1F76F856062CE0119
:100E60000E949406CCCFCF92DF92EF92FF92CF9365
:100E7000DF936A017B01EC012496DC015796EC912B
:100E8000E230F8F4E150E80FF92FF11D608D606851
:100E9000CE010E94940667E471E0CE010E949C049A
:100EA00022E0B701A601CE010E940A056DE471E0BF
:100EB000CE01DF91CF91FF90EF90DF90CF900C9417
:100EC0009C04E1E0E0CFCF92DF92EF92FF92CF93CC
:100ED000DF936A017B01EC012496E1E0DC01579687
:100EE0002C912111E0E0E195E80FF92FF11D608DC3
:100EF0006068CE010E94940660E571E0CE010E9418
:100F00009C0422E0B701A601CE010E940A0567E514
:100F100071E0CE01DF91CF91FF90EF90DF90CF9005
:100F20000C949C04CF93DF93EC0161E08A810E94D2
:100F3000D80060E08A810E948C00249662E0CE0195
:100F40000E94970661E0CE010E9494068BE39FE128
:100F50000197F1F7DF91CF9108951F920F920FB68D
:100F60000F9211242F933F938F939F93AF93BF932F
:100F70008091A0029091A102A091A202B091A3023F
:100F80003091FE0123E0230F2D3758F50196A11D66
:100F9000B11D2093FE018093A0029093A102A09323
:100FA000A202B093A3028091FF0190910002A09150
:100FB0000102B09102020196A11DB11D8093FF01B3
:100FC00090930002A0930102B0930202BF91AF91EF
:100FD0009F918F913F912F910F900FBE0F901F9077
:100FE000189526E8230F0296A11DB11DD2CF1F929E
:100FF0000F920FB60F9211242F933F934F935F934D
:101000006F937F938F939F93AF93BF93EF93FF93D0
:1010100083E092E00E94DE01FF91EF91BF91AF91DA
:101020009F918F917F916F915F914F913F912F9100
:101030000F900FBE0F901F9018951F920F920FB632
:101040000F9211242F938F939F93EF93FF93E0912F
:101050001302F09114028081E0911902F0911A02BA
:1010600082FD1BC0908180911C028F5F8F73209145
:101070001D02821741F0E0911C02F0E0ED5FFD4F90
:10108000958F80931C02FF91EF919F918F912F91EB
:101090000F900FBE0F901F9018958081F4CF789419
:1010A00084B5826084BD84B5816084BD85B582606D
:1010B00085BD85B5816085BD80916E00816080931E
:1010C0006E00109281008091810082608093810087
:1010D0008091810081608093810080918000816097
:1010E000809380008091B10084608093B1008091F2
:1010F000B00081608093B00080917A00846080931A
:101100007A0080917A00826080937A0080917A00E0
:10111000816080937A0080917A00806880937A0061
:101120001092C100E0911302F091140202E00083DA
:10113000E0910F02F09110021082E0911102F09103
:1011400012028FEC808310921B02E0911702F09143
:10115000180216E01083E0911502F09116028081CA
:1011600080618083E0911502F09116028081886091
:101170008083E0911502F09116028081806880835F
:10118000E0911502F091160280818F7D808385E1C8
:1011900090E00E94170DDC018CE191E011969C9388
:1011A0008E938DE017968C9317978BE0F82E1896F8
:1011B000FC921897E7EAF0E0E4911996EC931997FE
:1011C000E3E9F0E0E4911A96EC931A9740E85EE3C5
:1011D00060E070E01F964D935D936D937C93529702
:1011E000B093F501A093F401CD010E947D048CE140
:1011F00090E00E94170DEC0182E391E099838883CF
:1012000089E090E09B838A831F821E8286E291E0C0
:101210009D838C838AE088878FEF898788E08A871F
:1012200085E08B8784E08C8783E08D870E871F861F
:10123000188A198A1A8A1B8A61E0CE0104960E94D4
:101240009706D093F301C093F201CE010E9492075A
:1012500084E090E00E94170DEC01188387E08983F9
:10126000FA828CE08B83D093F001C093EF0161E0B0
:1012700086E00E94D80061E089810E94D80061E088
:101280008A810E94D80061E08B810E94D80061E0D1
:101290008B810E948C00C0E0D0E08FB7F8948090E2
:1012A000A0029090A102A090A202B090A3028FBFD2
:1012B0008091FA019091FB01A091FC01B091FD0198
:1012C000A5019401281B390B4A0B5B0BDA01C901FC
:1012D000803D9740A105B10500F18092FA019092FE
:1012E000FB01A092FC01B092FD018091F40190916C
:1012F000F501DC01ED91FC910280F381E02D09956F
:101300006B017C01AC019B010E94EA0C882309F46B
:1013100044C08AE591E00E94F7048091F601909123
:10132000F701A091F801B091F901A5019401281BE2
:10133000390B4A0B5B0BDA01C901803D9740A105CF
:10134000B10500F18092F6019092F701A092F801A8
:10135000B092F9018091F4019091F501DC01ED91D9
:10136000FC910480F581E02D09956B017C01AC01B5
:101370009B010E94EA0C882309F459C087E991E097
:101380000E94F704209709F488CF0E94CA0188239D
:1013900009F483CF0E94000080CF65E871E083E00C
:1013A00092E00E949C0422E0B701A60183E092E053
:1013B0000E940A0583E991E00E94F7048091F201FE
:1013C0009091F301DC01ED91FC910280F381E02D1D
:1013D000B701A60109958091EE0120E030E048ECCC
:1013E00051E4882391F0C701B6010E94200B181622
:1013F0000CF493CFE091EF01F091F00160E0808177
:101400000E948C001092EE0188CFC701B6010E94A5
:10141000780C87FD82CFE091EF01F091F00161E05F
:1014200080810E948C0081E08093EE0176CF6EEB8C
:1014300071E083E092E00E949C0422E0B701A601E3
:1014400083E092E00E940A058DE491E00E94F70497
:101450008091F2019091F301DC01ED91FC91048007
:10146000F581E02DB701A60109958091F10120E0F9
:1014700030E040E252E4882319F1C701B6010E942E
:10148000780C87FD7FCFE090EF01F090F00160E0F5
:10149000F70181810E948C0060E0D70112968C9147
:1014A0000E948C0061E0F70183810E948C0068EC4F
:1014B00071E083E092E00E949C041092F10162CFFF
:1014C000C701B6010E94200B18160CF45BCFE09008
:1014D000EF01F090F00161E0D70111968C910E942C
:1014E0008C0061E0F70182810E948C0060E0D701EE
:1014F00013968C910E948C006AED71E083E092E07B
:101500000E949C0481E08093F1013CCFE3E0F2E093
:101510001382128288EE93E0A0E0B0E0848395838A
:10152000A683B7838AE091E09183808385EC90E085
:101530009587848784EC90E09787868780EC90E09D
:10154000918B808B81EC90E0938B828B82EC90E08E
:10155000958B848B86EC90E0978B868B118E128E08
:10156000138E148E08955058BB27AA270E94CB0AC9
:101570000C943E0C0E94300C38F00E94370C20F086
:1015800039F49F3F19F426F40C942D0C0EF4E095D9
:10159000E7FB0C94270CE92F0E944F0C58F3BA1765
:1015A000620773078407950720F079F4A6F50C9479
:1015B000710C0EF4E0950B2EBA2FA02D0B01B90182
:1015C00090010C01CA01A0011124FF27591B99F0B9
:1015D000593F50F4503E68F11A16F040A22F232FC5
:1015E000342F4427585FF3CF469537952795A79515
:1015F000F0405395C9F77EF41F16BA0B620B730BBC
:10160000840BBAF09150A1F0FF0FBB1F661F771F2C
:10161000881FC2F70EC0BA0F621F731F841F48F4E1
:10162000879577956795B795F7959E3F08F0B0CF6A
:101630009395880F08F09927EE0F97958795089551
:101640000E94030C08F481E008950E94390B0C9469
:101650003E0C0E94370C58F00E94300C40F029F4E8
:101660005F3F29F00C94270C51110C94720C0C94D0
:101670002D0C0E944F0C68F39923B1F3552391F37D
:10168000951B550BBB27AA2762177307840738F0F1
:101690009F5F5F4F220F331F441FAA1FA9F335D04E
:1016A0000E2E3AF0E0E832D091505040E695001C02
:1016B000CAF72BD0FE2F29D0660F771F881FBB1FBC
:1016C000261737074807AB07B0E809F0BB0B802D9A
:1016D000BF01FF2793585F4F3AF09E3F510578F0C6
:1016E0000C94270C0C94720C5F3FE4F3983ED4F3F7
:1016F000869577956795B795F7959F5FC9F7880F9A
:10170000911D9695879597F90895E1E0660F771FEB
:10171000881FBB1F621773078407BA0720F0621B7C
:10172000730B840BBA0BEE1F88F7E09508950E94A7
:10173000570C88F09F5798F0B92F9927B751B0F000
:10174000E1F0660F771F881F991F1AF0BA95C9F745
:1017500014C0B13091F00E94710CB1E008950C9466
:10176000710C672F782F8827B85F39F0B93FCCF319
:10177000869577956795B395D9F73EF490958095C2
:10178000709561957F4F8F4F9F4F0895E89409C0E2
:1017900097FB3EF490958095709561957F4F8F4FA4
:1017A0009F4F9923A9F0F92F96E9BB279395F695BA
:1017B000879577956795B795F111F8CFFAF4BB0F38
:1017C00011F460FF1BC06F5F7F4F8F4F9F4F16C09C
:1017D000882311F096E911C0772321F09EE8872F26
:1017E000762F05C0662371F096E8862F70E060E0E2
:1017F0002AF09A95660F771F881FDAF7880F96955B
:10180000879597F90895990F0008550FAA0BE0E8FE
:10181000FEEF16161706E807F907C0F012161306B2
:10182000E407F50798F0621B730B840B950B39F4F2
:101830000A2661F0232B242B252B21F408950A2658
:1018400009F4A140A6958FEF811D811D089597F998
:101850009F6780E870E060E008959FEF80EC089556
:1018600000240A941616170618060906089500247F
:101870000A9412161306140605060895092E0394F9
:10188000000C11F4882352F0BB0F40F4BF2B11F46D
:1018900060FF04C06F5F7F4F8F4F9F4F089557FDCC
:1018A0009058440F551F59F05F3F71F04795880FCE
:1018B00097FB991F61F09F3F79F087950895121665
:1018C00013061406551FF2CF4695F1DF08C0161611
:1018D00017061806991FF1CF8695710561050894C2
:1018E0000895E894BB2766277727CB0197F90895D9
:1018F0000E94030C08F48FEF08950E94900C0C9442
:101900003E0C0E94300C38F00E94370C20F09523DA
:1019100011F00C94270C0C942D0C11240C94720CC7
:101920000E944F0C70F3959FC1F3950F50E0551F27
:10193000629FF001729FBB27F00DB11D639FAA2724
:10194000F00DB11DAA1F649F6627B00DA11D661F73
:10195000829F2227B00DA11D621F739FB00DA11D94
:10196000621F839FA00D611D221F749F3327A00D4E
:10197000611D231F849F600D211D822F762F6A2FEA
:1019800011249F5750409AF0F1F088234AF0EE0F4F
:10199000FF1FBB1F661F771F881F91505040A9F77C
:1019A0009E3F510580F00C94270C0C94720C5F3F05
:1019B000E4F3983ED4F3869577956795B795F795B8
:1019C000E7959F5FC1F7FE2B880F911D9695879530
:1019D00097F908950E94030C880B990B0895A1E2D2
:1019E0001A2EAA1BBB1BFD010DC0AA1FBB1FEE1F99
:1019F000FF1FA217B307E407F50720F0A21BB30BE4
:101A0000E40BF50B661F771F881F991F1A9469F75F
:101A100060957095809590959B01AC01BD01CF01BB
:101A20000895EE0FFF1F0590F491E02D09940F9398
:101A30001F93CF93DF938230910510F482E090E002
:101A4000E091A602F091A70230E020E0B0E0A0E033
:101A5000309799F42115310509F44AC0281B390B38
:101A600024303105D8F58A819B816115710589F192
:101A7000FB0193838283FE0111C040815181028169
:101A8000138148175907E0F04817590799F4109740
:101A900061F012960C93129713961C933296CF0115
:101AA000DF91CF911F910F9108950093A60210939B
:101AB000A702F4CF2115310551F04217530738F032
:101AC000A901DB019A01BD01DF01F801C1CFEF01DE
:101AD000F9CF9093A7028093A602CDCFFE01E20F2B
:101AE000F31F819391932250310939832883D7CFF3
:101AF0002091A4023091A502232B41F420910201F0
:101B0000309103013093A5022093A402209100019B
:101B1000309101012115310541F42DB73EB74091B7
:101B2000040150910501241B350BE091A402F091B2
:101B3000A502E217F307A0F42E1B3F0B2817390765
:101B400078F0AC014E5F5F4F2417350748F04E0F19
:101B50005F1F5093A5024093A402819391939FCF5E
:101B6000F0E0E0E09CCFCF93DF930097E9F0FC0139
:101B7000329713821282A091A602B091A702ED01C2
:101B800030E020E01097A1F420813181820F931F73
:101B90002091A4023091A5022817390709F061C0ED
:101BA000F093A502E093A402DF91CF910895EA019A
:101BB000CE17DF07E8F54A815B819E01411551058B
:101BC000B1F7E901FB83EA8349915991C40FD51F0D
:101BD000EC17FD0761F4808191810296840F951FB7
:101BE000E90199838883828193819B838A83F0E0D2
:101BF000E0E012968D919C9113970097B9F52D9185
:101C00003C911197CD010296820F931F2091A4025F
:101C10003091A5022817390739F6309751F51092FF
:101C2000A7021092A602B093A502A093A402BCCF73
:101C3000D383C28340815181840F951FC817D90770
:101C400061F44E5F5F4F88819981480F591F51831E
:101C500040838A819B81938382832115310509F01A
:101C6000B0CFF093A702E093A6029ECFFD01DC0166
:101C7000C0CF13821282D7CFF894FFCF0000A80202
:101C8000800000000000000260018D014D02BE01D5
:101C90009C01B001000000007D040104B7030000B6
:101CA00000008E0660016E026D02000000009207C7
:101CB000630733070D0A006E616E00696E66006F80
:101CC00076660048756D3A200020250054656D70D9
:101CD0003A2000204300C2A14572726F7220616CED
:101CE000206C656572206C612074656D7065726131
:101CF000747572612064656C2073656E736F7221F8
:101D00000054656D70657261747572613A200020CF
:101D10002A4300C2A14572726F7220616C206C650B
:101D20006572206C612068756D656461642064650E
:101D30006C2073656E736F72210048756D65646108
:101D4000643A200041706167616D6F73206C61209F
:101D5000626F6D626100456E63656E64656D6F7381
:0A1D6000206C6120626F6D6261006B
:107E0000112484B714BE81FFF0D085E080938100F7
:107E100082E08093C00088E18093C10086E0809377
:107E2000C20080E18093C4008EE0C9D0259A86E02C
:107E300020E33CEF91E0309385002093840096BBD3
:107E4000B09BFECF1D9AA8958150A9F7CC24DD24C4
:107E500088248394B5E0AB2EA1E19A2EF3E0BF2EE7
:107E6000A2D0813461F49FD0082FAFD0023811F036
:107E7000013811F484E001C083E08DD089C08234E0
:107E800011F484E103C0853419F485E0A6D080C0E4
:107E9000853579F488D0E82EFF2485D0082F10E0AE
:107EA000102F00270E291F29000F111F8ED06801E7
:107EB0006FC0863521F484E090D080E0DECF843638
:107EC00009F040C070D06FD0082F6DD080E0C81688
:107ED00080E7D80618F4F601B7BEE895C0E0D1E017
:107EE00062D089930C17E1F7F0E0CF16F0E7DF06D8
:107EF00018F0F601B7BEE89568D007B600FCFDCFD4
:107F0000A601A0E0B1E02C9130E011968C91119780
:107F100090E0982F8827822B932B1296FA010C0160
:107F200087BEE89511244E5F5F4FF1E0A038BF0790
:107F300051F7F601A7BEE89507B600FCFDCF97BE46
:107F4000E89526C08437B1F42ED02DD0F82E2BD052
:107F50003CD0F601EF2C8F010F5F1F4F84911BD097
:107F6000EA94F801C1F70894C11CD11CFA94CF0C13
:107F7000D11C0EC0853739F428D08EE10CD085E9AC
:107F80000AD08FE07ACF813511F488E018D01DD067
:107F900080E101D065CF982F8091C00085FFFCCF94
:107FA0009093C60008958091C00087FFFCCF809118
:107FB000C00084FD01C0A8958091C6000895E0E648
:107FC000F0E098E1908380830895EDDF803219F02E
:107FD00088E0F5DFFFCF84E1DECF1F93182FE3DFCA
:107FE0001150E9F7F2DF1F91089580E0E8DFEE27F6
:047FF000FF270994CA
:027FFE00040479
:00000001FF
